{
  "contractName": "CreditBook",
  "abi": [
    {
      "inputs": [
        {
          "internalType": "address",
          "name": "owneraddr",
          "type": "address"
        },
        {
          "internalType": "address",
          "name": "currencyaddr",
          "type": "address"
        },
        {
          "internalType": "string",
          "name": "booktitle",
          "type": "string"
        }
      ],
      "stateMutability": "nonpayable",
      "type": "constructor"
    },
    {
      "inputs": [],
      "name": "owner",
      "outputs": [
        {
          "internalType": "address",
          "name": "",
          "type": "address"
        }
      ],
      "stateMutability": "view",
      "type": "function"
    },
    {
      "inputs": [],
      "name": "currencyToken",
      "outputs": [
        {
          "internalType": "address",
          "name": "",
          "type": "address"
        }
      ],
      "stateMutability": "view",
      "type": "function"
    },
    {
      "inputs": [],
      "name": "title",
      "outputs": [
        {
          "internalType": "string",
          "name": "",
          "type": "string"
        }
      ],
      "stateMutability": "view",
      "type": "function"
    },
    {
      "inputs": [],
      "name": "currencyName",
      "outputs": [
        {
          "internalType": "string",
          "name": "",
          "type": "string"
        }
      ],
      "stateMutability": "view",
      "type": "function"
    },
    {
      "inputs": [],
      "name": "currencySymbol",
      "outputs": [
        {
          "internalType": "string",
          "name": "",
          "type": "string"
        }
      ],
      "stateMutability": "view",
      "type": "function"
    },
    {
      "inputs": [],
      "name": "currencyDecimals",
      "outputs": [
        {
          "internalType": "uint8",
          "name": "",
          "type": "uint8"
        }
      ],
      "stateMutability": "view",
      "type": "function"
    },
    {
      "inputs": [
        {
          "internalType": "address",
          "name": "client",
          "type": "address"
        }
      ],
      "name": "creditlimitOf",
      "outputs": [
        {
          "internalType": "uint256",
          "name": "",
          "type": "uint256"
        }
      ],
      "stateMutability": "view",
      "type": "function"
    },
    {
      "inputs": [
        {
          "internalType": "address",
          "name": "client",
          "type": "address"
        }
      ],
      "name": "balanceOf",
      "outputs": [
        {
          "internalType": "uint256",
          "name": "",
          "type": "uint256"
        }
      ],
      "stateMutability": "view",
      "type": "function"
    },
    {
      "inputs": [
        {
          "internalType": "address",
          "name": "client",
          "type": "address"
        }
      ],
      "name": "creditToken",
      "outputs": [
        {
          "internalType": "address",
          "name": "",
          "type": "address"
        }
      ],
      "stateMutability": "view",
      "type": "function"
    },
    {
      "inputs": [
        {
          "internalType": "string",
          "name": "newtitle",
          "type": "string"
        }
      ],
      "name": "setTitle",
      "outputs": [
        {
          "internalType": "string",
          "name": "",
          "type": "string"
        }
      ],
      "stateMutability": "nonpayable",
      "type": "function"
    },
    {
      "inputs": [],
      "name": "accounts",
      "outputs": [
        {
          "internalType": "string[]",
          "name": "",
          "type": "string[]"
        }
      ],
      "stateMutability": "view",
      "type": "function"
    },
    {
      "inputs": [
        {
          "internalType": "string",
          "name": "accountdata",
          "type": "string"
        },
        {
          "internalType": "address",
          "name": "client",
          "type": "address"
        }
      ],
      "name": "createAccount",
      "outputs": [
        {
          "internalType": "bool",
          "name": "",
          "type": "bool"
        }
      ],
      "stateMutability": "nonpayable",
      "type": "function"
    },
    {
      "inputs": [
        {
          "internalType": "address",
          "name": "client",
          "type": "address"
        },
        {
          "internalType": "uint256",
          "name": "limit",
          "type": "uint256"
        }
      ],
      "name": "updateCreditLimit",
      "outputs": [
        {
          "internalType": "uint256",
          "name": "",
          "type": "uint256"
        }
      ],
      "stateMutability": "nonpayable",
      "type": "function"
    },
    {
      "inputs": [
        {
          "internalType": "address",
          "name": "client",
          "type": "address"
        },
        {
          "internalType": "uint256",
          "name": "amount",
          "type": "uint256"
        }
      ],
      "name": "payWithCredits",
      "outputs": [
        {
          "internalType": "bool",
          "name": "",
          "type": "bool"
        }
      ],
      "stateMutability": "nonpayable",
      "type": "function"
    },
    {
      "inputs": [
        {
          "internalType": "uint256",
          "name": "amount",
          "type": "uint256"
        }
      ],
      "name": "topupCredits",
      "outputs": [
        {
          "internalType": "bool",
          "name": "",
          "type": "bool"
        }
      ],
      "stateMutability": "nonpayable",
      "type": "function"
    }
  ],
  "bytecode": "0x60806040523480156200001157600080fd5b506040516200383738038062003837833981810160405281019062000037919062000213565b826000806101000a81548173ffffffffffffffffffffffffffffffffffffffff021916908373ffffffffffffffffffffffffffffffffffffffff16021790555081600160006101000a81548173ffffffffffffffffffffffffffffffffffffffff021916908373ffffffffffffffffffffffffffffffffffffffff1602179055508060029080519060200190620000d0929190620000da565b5050505062000401565b828054620000e89062000353565b90600052602060002090601f0160209004810192826200010c576000855562000158565b82601f106200012757805160ff191683800117855562000158565b8280016001018555821562000158579182015b82811115620001575782518255916020019190600101906200013a565b5b5090506200016791906200016b565b5090565b5b80821115620001865760008160009055506001016200016c565b5090565b6000620001a16200019b84620002b6565b62000282565b905082815260208101848484011115620001ba57600080fd5b620001c78482856200031d565b509392505050565b600081519050620001e081620003e7565b92915050565b600082601f830112620001f857600080fd5b81516200020a8482602086016200018a565b91505092915050565b6000806000606084860312156200022957600080fd5b60006200023986828701620001cf565b93505060206200024c86828701620001cf565b925050604084015167ffffffffffffffff8111156200026a57600080fd5b6200027886828701620001e6565b9150509250925092565b6000604051905081810181811067ffffffffffffffff82111715620002ac57620002ab620003b8565b5b8060405250919050565b600067ffffffffffffffff821115620002d457620002d3620003b8565b5b601f19601f8301169050602081019050919050565b6000620002f682620002fd565b9050919050565b600073ffffffffffffffffffffffffffffffffffffffff82169050919050565b60005b838110156200033d57808201518184015260208101905062000320565b838111156200034d576000848401525b50505050565b600060028204905060018216806200036c57607f821691505b6020821081141562000383576200038262000389565b5b50919050565b7f4e487b7100000000000000000000000000000000000000000000000000000000600052602260045260246000fd5b7f4e487b7100000000000000000000000000000000000000000000000000000000600052604160045260246000fd5b620003f281620002e9565b8114620003fe57600080fd5b50565b61342680620004116000396000f3fe60806040523480156200001157600080fd5b50600436106200010c5760003560e01c806383d4771b11620000a5578063968c4209116200006f578063968c420914620002eb578063a9016420146200030d578063b8a15f0d1462000343578063c6223c891462000379576200010c565b806383d4771b146200023b57806385143ce614620002715780638670118614620002a75780638da5cb5b14620002c9576200010c565b806370a0823111620000e757806370a08231146200017757806372910be014620001ad57806373b1e6d814620001e35780637624388e1462000219576200010c565b80634a79d50c146200011157806368cd03f614620001335780636b2fa3741462000155575b600080fd5b6200011b620003af565b6040516200012a919062001cae565b60405180910390f35b6200013d62000449565b6040516200014c919062001c6d565b60405180910390f35b6200015f6200052c565b6040516200016e919062001be6565b60405180910390f35b6200019560048036038101906200018f91906200161a565b62000556565b604051620001a4919062001dc0565b60405180910390f35b620001cb6004803603810190620001c59190620016b3565b6200059f565b604051620001da919062001cae565b60405180910390f35b620002016004803603810190620001fb9190620016fc565b620006e7565b60405162000210919062001c91565b60405180910390f35b6200022362000935565b60405162000232919062001ddd565b60405180910390f35b6200025960048036038101906200025391906200161a565b620009e5565b60405162000268919062001dc0565b60405180910390f35b6200028f600480360381019062000289919062001646565b62000a2e565b6040516200029e919062001c91565b60405180910390f35b620002b162000bbc565b604051620002c0919062001cae565b60405180910390f35b620002d362000c72565b604051620002e2919062001be6565b60405180910390f35b620002f562000c9b565b60405162000304919062001cae565b60405180910390f35b6200032b60048036038101906200032591906200161a565b62000d51565b6040516200033a919062001be6565b60405180910390f35b6200036160048036038101906200035b91906200179f565b62000e07565b60405162000370919062001c91565b60405180910390f35b62000397600480360381019062000391919062001646565b620011e5565b604051620003a6919062001dc0565b60405180910390f35b606060028054620003c09062001fec565b80601f0160208091040260200160405190810160405280929190818152602001828054620003ee9062001fec565b80156200043f5780601f1062000413576101008083540402835291602001916200043f565b820191906000526020600020905b8154815290600101906020018083116200042157829003601f168201915b5050505050905090565b60606003805480602002602001604051908101604052809291908181526020016000905b82821015620005235783829060005260206000200180546200048f9062001fec565b80601f0160208091040260200160405190810160405280929190818152602001828054620004bd9062001fec565b80156200050e5780601f10620004e2576101008083540402835291602001916200050e565b820191906000526020600020905b815481529060010190602001808311620004f057829003601f168201915b5050505050815260200190600101906200046d565b50505050905090565b6000600160009054906101000a900473ffffffffffffffffffffffffffffffffffffffff16905090565b6000600660008373ffffffffffffffffffffffffffffffffffffffff1673ffffffffffffffffffffffffffffffffffffffff168152602001908152602001600020549050919050565b606060008054906101000a900473ffffffffffffffffffffffffffffffffffffffff1673ffffffffffffffffffffffffffffffffffffffff163373ffffffffffffffffffffffffffffffffffffffff161462000632576040517f08c379a0000000000000000000000000000000000000000000000000000000008152600401620006299062001d9e565b60405180910390fd5b600060028054620006439062001fec565b80601f0160208091040260200160405190810160405280929190818152602001828054620006719062001fec565b8015620006c25780601f106200069657610100808354040283529160200191620006c2565b820191906000526020600020905b815481529060010190602001808311620006a457829003601f168201915b50505050509050838360029190620006dc9291906200142a565b508091505092915050565b60008073ffffffffffffffffffffffffffffffffffffffff168273ffffffffffffffffffffffffffffffffffffffff1614156200075b576040517f08c379a0000000000000000000000000000000000000000000000000000000008152600401620007529062001cd2565b60405180910390fd5b600073ffffffffffffffffffffffffffffffffffffffff16600460008473ffffffffffffffffffffffffffffffffffffffff1673ffffffffffffffffffffffffffffffffffffffff16815260200190815260200160002060009054906101000a900473ffffffffffffffffffffffffffffffffffffffff1673ffffffffffffffffffffffffffffffffffffffff16146200082c576040517f08c379a0000000000000000000000000000000000000000000000000000000008152600401620008239062001d38565b60405180910390fd5b60038484909180600181540180825580915050600190039060005260206000200160009091929091929091929091925091906200086b9291906200142a565b50600030836040516200087e90620014bb565b6200088b92919062001c03565b604051809103906000f080158015620008a8573d6000803e3d6000fd5b50905080600460008573ffffffffffffffffffffffffffffffffffffffff1673ffffffffffffffffffffffffffffffffffffffff16815260200190815260200160002060006101000a81548173ffffffffffffffffffffffffffffffffffffffff021916908373ffffffffffffffffffffffffffffffffffffffff16021790555060019150509392505050565b600080600160009054906101000a900473ffffffffffffffffffffffffffffffffffffffff1690508073ffffffffffffffffffffffffffffffffffffffff1663313ce5676040518163ffffffff1660e01b815260040160206040518083038186803b158015620009a457600080fd5b505afa158015620009b9573d6000803e3d6000fd5b505050506040513d601f19601f82011682018060405250810190620009df9190620017f7565b91505090565b6000600560008373ffffffffffffffffffffffffffffffffffffffff1673ffffffffffffffffffffffffffffffffffffffff168152602001908152602001600020549050919050565b600080600460008573ffffffffffffffffffffffffffffffffffffffff1673ffffffffffffffffffffffffffffffffffffffff16815260200190815260200160002060009054906101000a900473ffffffffffffffffffffffffffffffffffffffff1690508073ffffffffffffffffffffffffffffffffffffffff163373ffffffffffffffffffffffffffffffffffffffff161462000acc57600080fd5b6000600660008673ffffffffffffffffffffffffffffffffffffffff1673ffffffffffffffffffffffffffffffffffffffff1681526020019081526020016000205490508381101562000b56576040517f08c379a000000000000000000000000000000000000000000000000000000000815260040162000b4d9062001d7c565b60405180910390fd5b80841162000bb057838162000b6c919062001f24565b600660008773ffffffffffffffffffffffffffffffffffffffff1673ffffffffffffffffffffffffffffffffffffffff168152602001908152602001600020819055505b60019250505092915050565b60606000600160009054906101000a900473ffffffffffffffffffffffffffffffffffffffff1690508073ffffffffffffffffffffffffffffffffffffffff166306fdde036040518163ffffffff1660e01b815260040160006040518083038186803b15801562000c2c57600080fd5b505afa15801562000c41573d6000803e3d6000fd5b505050506040513d6000823e3d601f19601f8201168201806040525081019062000c6c91906200175a565b91505090565b60008060009054906101000a900473ffffffffffffffffffffffffffffffffffffffff16905090565b60606000600160009054906101000a900473ffffffffffffffffffffffffffffffffffffffff1690508073ffffffffffffffffffffffffffffffffffffffff166395d89b416040518163ffffffff1660e01b815260040160006040518083038186803b15801562000d0b57600080fd5b505afa15801562000d20573d6000803e3d6000fd5b505050506040513d6000823e3d601f19601f8201168201806040525081019062000d4b91906200175a565b91505090565b600080600460008473ffffffffffffffffffffffffffffffffffffffff1673ffffffffffffffffffffffffffffffffffffffff16815260200190815260200160002060009054906101000a900473ffffffffffffffffffffffffffffffffffffffff169050600073ffffffffffffffffffffffffffffffffffffffff168173ffffffffffffffffffffffffffffffffffffffff16141562000df757600091505062000e02565b600081905080925050505b919050565b6000803390506000600560008373ffffffffffffffffffffffffffffffffffffffff1673ffffffffffffffffffffffffffffffffffffffff1681526020019081526020016000205490506000600660008473ffffffffffffffffffffffffffffffffffffffff1673ffffffffffffffffffffffffffffffffffffffff16815260200190815260200160002054905084818362000ea4919062001f24565b101562000ee8576040517f08c379a000000000000000000000000000000000000000000000000000000000815260040162000edf9062001d5a565b60405180910390fd5b6000600160009054906101000a900473ffffffffffffffffffffffffffffffffffffffff16905060008173ffffffffffffffffffffffffffffffffffffffff166370a08231866040518263ffffffff1660e01b815260040162000f4c919062001be6565b60206040518083038186803b15801562000f6557600080fd5b505afa15801562000f7a573d6000803e3d6000fd5b505050506040513d601f19601f8201168201806040525081019062000fa09190620017cb565b905060008273ffffffffffffffffffffffffffffffffffffffff1663dd62ed3e87306040518363ffffffff1660e01b815260040162000fe192919062001c03565b60206040518083038186803b15801562000ffa57600080fd5b505afa1580156200100f573d6000803e3d6000fd5b505050506040513d601f19601f82011682018060405250810190620010359190620017cb565b9050878210156200107d576040517f08c379a0000000000000000000000000000000000000000000000000000000008152600401620010749062001d16565b60405180910390fd5b87811015620010c3576040517f08c379a0000000000000000000000000000000000000000000000000000000008152600401620010ba9062001cf4565b60405180910390fd5b60008373ffffffffffffffffffffffffffffffffffffffff166323b872dd8860008054906101000a900473ffffffffffffffffffffffffffffffffffffffff168c6040518463ffffffff1660e01b8152600401620011249392919062001c30565b602060405180830381600087803b1580156200113f57600080fd5b505af115801562001154573d6000803e3d6000fd5b505050506040513d601f19601f820116820180604052508101906200117a919062001687565b90508015620011d557888562001191919062001ec7565b600660008973ffffffffffffffffffffffffffffffffffffffff1673ffffffffffffffffffffffffffffffffffffffff168152602001908152602001600020819055505b6001975050505050505050919050565b600080600560008573ffffffffffffffffffffffffffffffffffffffff1673ffffffffffffffffffffffffffffffffffffffff1681526020019081526020016000205490506000600660008673ffffffffffffffffffffffffffffffffffffffff1673ffffffffffffffffffffffffffffffffffffffff16815260200190815260200160002054905083600560008773ffffffffffffffffffffffffffffffffffffffff1673ffffffffffffffffffffffffffffffffffffffff16815260200190815260200160002081905550818411156200131f57818482620012ca919062001ec7565b620012d6919062001f24565b600660008773ffffffffffffffffffffffffffffffffffffffff1673ffffffffffffffffffffffffffffffffffffffff16815260200190815260200160002081905550620013e0565b83826200132d919062001f24565b811115620013995783828262001344919062001f24565b62001350919062001ec7565b600660008773ffffffffffffffffffffffffffffffffffffffff1673ffffffffffffffffffffffffffffffffffffffff16815260200190815260200160002081905550620013df565b6000600660008773ffffffffffffffffffffffffffffffffffffffff1673ffffffffffffffffffffffffffffffffffffffff168152602001908152602001600020819055505b5b600560008673ffffffffffffffffffffffffffffffffffffffff1673ffffffffffffffffffffffffffffffffffffffff168152602001908152602001600020549250505092915050565b828054620014389062001fec565b90600052602060002090601f0160209004810192826200145c5760008555620014a8565b82601f106200147757803560ff1916838001178555620014a8565b82800160010185558215620014a8579182015b82811115620014a75782358255916020019190600101906200148a565b5b509050620014b79190620014c9565b5090565b6112c8806200212983390190565b5b80821115620014e4576000816000905550600101620014ca565b5090565b6000620014ff620014f98462001e2e565b62001dfa565b9050828152602081018484840111156200151857600080fd5b6200152584828562001fb6565b509392505050565b6000813590506200153e81620020c0565b92915050565b6000815190506200155581620020da565b92915050565b60008083601f8401126200156e57600080fd5b8235905067ffffffffffffffff8111156200158857600080fd5b602083019150836001820283011115620015a157600080fd5b9250929050565b600082601f830112620015ba57600080fd5b8151620015cc848260208601620014e8565b91505092915050565b600081359050620015e681620020f4565b92915050565b600081519050620015fd81620020f4565b92915050565b60008151905062001614816200210e565b92915050565b6000602082840312156200162d57600080fd5b60006200163d848285016200152d565b91505092915050565b600080604083850312156200165a57600080fd5b60006200166a858286016200152d565b92505060206200167d85828601620015d5565b9150509250929050565b6000602082840312156200169a57600080fd5b6000620016aa8482850162001544565b91505092915050565b60008060208385031215620016c757600080fd5b600083013567ffffffffffffffff811115620016e257600080fd5b620016f0858286016200155b565b92509250509250929050565b6000806000604084860312156200171257600080fd5b600084013567ffffffffffffffff8111156200172d57600080fd5b6200173b868287016200155b565b9350935050602062001750868287016200152d565b9150509250925092565b6000602082840312156200176d57600080fd5b600082015167ffffffffffffffff8111156200178857600080fd5b6200179684828501620015a8565b91505092915050565b600060208284031215620017b257600080fd5b6000620017c284828501620015d5565b91505092915050565b600060208284031215620017de57600080fd5b6000620017ee84828501620015ec565b91505092915050565b6000602082840312156200180a57600080fd5b60006200181a8482850162001603565b91505092915050565b6000620018318383620018dc565b905092915050565b620018448162001f5f565b82525050565b6000620018578262001e71565b62001863818562001e94565b935083602082028501620018778562001e61565b8060005b85811015620018b9578484038952815162001897858262001823565b9450620018a48362001e87565b925060208a019950506001810190506200187b565b50829750879550505050505092915050565b620018d68162001f73565b82525050565b6000620018e98262001e7c565b620018f5818562001ea5565b93506200190781856020860162001fb6565b6200191281620020af565b840191505092915050565b60006200192a8262001e7c565b62001936818562001eb6565b93506200194881856020860162001fb6565b6200195381620020af565b840191505092915050565b60006200196d60158362001eb6565b91507f436c69656e742061646472657373206e656564656400000000000000000000006000830152602082019050919050565b6000620019af60308362001eb6565b91507f544f5055503a20636865636b207468652063757272656e637920616c6c6f776160008301527f6e636520666f7220636f6e7472616374000000000000000000000000000000006020830152604082019050919050565b600062001a17602b8362001eb6565b91507f544f5055503a2062616c616e6365206f662063757272656e637920746f6b656e60008301527f20697320746f6f206c6f770000000000000000000000000000000000000000006020830152604082019050919050565b600062001a7f60218362001eb6565b91507f4163636f756e7420666f7220636c69656e7420616c726561647920657869737460008301527f73000000000000000000000000000000000000000000000000000000000000006020830152604082019050919050565b600062001ae7601d8362001eb6565b91507f544f5055503a20616d6f756e742065786365656473206365696c696e670000006000830152602082019050919050565b600062001b2960278362001eb6565b91507f4352454449543a207472616e7366657220616d6f756e7420657863656564732060008301527f62616c616e6365000000000000000000000000000000000000000000000000006020830152604082019050919050565b600062001b91600e8362001eb6565b91507f4f6e6c7920666f72206f776e65720000000000000000000000000000000000006000830152602082019050919050565b62001bcf8162001f9f565b82525050565b62001be08162001fa9565b82525050565b600060208201905062001bfd600083018462001839565b92915050565b600060408201905062001c1a600083018562001839565b62001c29602083018462001839565b9392505050565b600060608201905062001c47600083018662001839565b62001c56602083018562001839565b62001c65604083018462001bc4565b949350505050565b6000602082019050818103600083015262001c8981846200184a565b905092915050565b600060208201905062001ca86000830184620018cb565b92915050565b6000602082019050818103600083015262001cca81846200191d565b905092915050565b6000602082019050818103600083015262001ced816200195e565b9050919050565b6000602082019050818103600083015262001d0f81620019a0565b9050919050565b6000602082019050818103600083015262001d318162001a08565b9050919050565b6000602082019050818103600083015262001d538162001a70565b9050919050565b6000602082019050818103600083015262001d758162001ad8565b9050919050565b6000602082019050818103600083015262001d978162001b1a565b9050919050565b6000602082019050818103600083015262001db98162001b82565b9050919050565b600060208201905062001dd7600083018462001bc4565b92915050565b600060208201905062001df4600083018462001bd5565b92915050565b6000604051905081810181811067ffffffffffffffff8211171562001e245762001e2362002080565b5b8060405250919050565b600067ffffffffffffffff82111562001e4c5762001e4b62002080565b5b601f19601f8301169050602081019050919050565b6000819050602082019050919050565b600081519050919050565b600081519050919050565b6000602082019050919050565b600082825260208201905092915050565b600082825260208201905092915050565b600082825260208201905092915050565b600062001ed48262001f9f565b915062001ee18362001f9f565b9250827fffffffffffffffffffffffffffffffffffffffffffffffffffffffffffffffff0382111562001f195762001f1862002022565b5b828201905092915050565b600062001f318262001f9f565b915062001f3e8362001f9f565b92508282101562001f545762001f5362002022565b5b828203905092915050565b600062001f6c8262001f7f565b9050919050565b60008115159050919050565b600073ffffffffffffffffffffffffffffffffffffffff82169050919050565b6000819050919050565b600060ff82169050919050565b60005b8381101562001fd657808201518184015260208101905062001fb9565b8381111562001fe6576000848401525b50505050565b600060028204905060018216806200200557607f821691505b602082108114156200201c576200201b62002051565b5b50919050565b7f4e487b7100000000000000000000000000000000000000000000000000000000600052601160045260246000fd5b7f4e487b7100000000000000000000000000000000000000000000000000000000600052602260045260246000fd5b7f4e487b7100000000000000000000000000000000000000000000000000000000600052604160045260246000fd5b6000601f19601f8301169050919050565b620020cb8162001f5f565b8114620020d757600080fd5b50565b620020e58162001f73565b8114620020f157600080fd5b50565b620020ff8162001f9f565b81146200210b57600080fd5b50565b620021198162001fa9565b81146200212557600080fd5b5056fe60806040523480156200001157600080fd5b50604051620012c8380380620012c88339818101604052810190620000379190620001ec565b816000806101000a81548173ffffffffffffffffffffffffffffffffffffffff021916908373ffffffffffffffffffffffffffffffffffffffff16021790555060008060009054906101000a900473ffffffffffffffffffffffffffffffffffffffff1690508073ffffffffffffffffffffffffffffffffffffffff16638da5cb5b6040518163ffffffff1660e01b815260040160206040518083038186803b158015620000e457600080fd5b505afa158015620000f9573d6000803e3d6000fd5b505050506040513d601f19601f820116820180604052508101906200011f9190620001c0565b600160006101000a81548173ffffffffffffffffffffffffffffffffffffffff021916908373ffffffffffffffffffffffffffffffffffffffff16021790555081600260006101000a81548173ffffffffffffffffffffffffffffffffffffffff021916908373ffffffffffffffffffffffffffffffffffffffff1602179055505050506200027b565b600081519050620001ba8162000261565b92915050565b600060208284031215620001d357600080fd5b6000620001e384828501620001a9565b91505092915050565b600080604083850312156200020057600080fd5b60006200021085828601620001a9565b92505060206200022385828601620001a9565b9150509250929050565b60006200023a8262000241565b9050919050565b600073ffffffffffffffffffffffffffffffffffffffff82169050919050565b6200026c816200022d565b81146200027857600080fd5b50565b61103d806200028b6000396000f3fe608060405234801561001057600080fd5b50600436106100b45760003560e01c806370a082311161007157806370a08231146101a357806395d89b41146101d3578063a457c2d7146101f1578063a9059cbb14610221578063dd62ed3e14610251578063f7a7161514610281576100b4565b806306fdde03146100b9578063095ea7b3146100d757806318160ddd1461010757806323b872dd14610125578063313ce567146101555780633950935114610173575b600080fd5b6100c161029f565b6040516100ce9190610dce565b60405180910390f35b6100f160048036038101906100ec9190610b36565b610350565b6040516100fe9190610db3565b60405180910390f35b61010f610358565b60405161011c9190610e30565b60405180910390f35b61013f600480360381019061013a9190610ae7565b61042f565b60405161014c9190610db3565b60405180910390f35b61015d610438565b60405161016a9190610e4b565b60405180910390f35b61018d60048036038101906101889190610b36565b6104e2565b60405161019a9190610db3565b60405180910390f35b6101bd60048036038101906101b89190610a82565b6104ea565b6040516101ca9190610e30565b60405180910390f35b6101db610623565b6040516101e89190610dce565b60405180910390f35b61020b60048036038101906102069190610b36565b6106d4565b6040516102189190610db3565b60405180910390f35b61023b60048036038101906102369190610b36565b6106dc565b6040516102489190610db3565b60405180910390f35b61026b60048036038101906102669190610aab565b610978565b6040516102789190610e30565b60405180910390f35b610289610980565b6040516102969190610d6f565b60405180910390f35b606060008060009054906101000a900473ffffffffffffffffffffffffffffffffffffffff1690508073ffffffffffffffffffffffffffffffffffffffff1663867011866040518163ffffffff1660e01b815260040160006040518083038186803b15801561030d57600080fd5b505afa158015610321573d6000803e3d6000fd5b505050506040513d6000823e3d601f19601f8201168201806040525081019061034a9190610b9b565b91505090565b600092915050565b60008060008054906101000a900473ffffffffffffffffffffffffffffffffffffffff1690508073ffffffffffffffffffffffffffffffffffffffff166383d4771b600260009054906101000a900473ffffffffffffffffffffffffffffffffffffffff166040518263ffffffff1660e01b81526004016103d99190610d6f565b60206040518083038186803b1580156103f157600080fd5b505afa158015610405573d6000803e3d6000fd5b505050506040513d601f19601f820116820180604052508101906104299190610bdc565b91505090565b60009392505050565b60008060008054906101000a900473ffffffffffffffffffffffffffffffffffffffff1690508073ffffffffffffffffffffffffffffffffffffffff16637624388e6040518163ffffffff1660e01b815260040160206040518083038186803b1580156104a457600080fd5b505afa1580156104b8573d6000803e3d6000fd5b505050506040513d601f19601f820116820180604052508101906104dc9190610c05565b91505090565b600092915050565b60008060008054906101000a900473ffffffffffffffffffffffffffffffffffffffff169050600260009054906101000a900473ffffffffffffffffffffffffffffffffffffffff1673ffffffffffffffffffffffffffffffffffffffff168373ffffffffffffffffffffffffffffffffffffffff161461056f57600091505061061e565b8073ffffffffffffffffffffffffffffffffffffffff166370a08231600260009054906101000a900473ffffffffffffffffffffffffffffffffffffffff166040518263ffffffff1660e01b81526004016105ca9190610d6f565b60206040518083038186803b1580156105e257600080fd5b505afa1580156105f6573d6000803e3d6000fd5b505050506040513d601f19601f8201168201806040525081019061061a9190610bdc565b9150505b919050565b606060008060009054906101000a900473ffffffffffffffffffffffffffffffffffffffff1690508073ffffffffffffffffffffffffffffffffffffffff1663968c42096040518163ffffffff1660e01b815260040160006040518083038186803b15801561069157600080fd5b505afa1580156106a5573d6000803e3d6000fd5b505050506040513d6000823e3d601f19601f820116820180604052508101906106ce9190610b9b565b91505090565b600092915050565b6000600260009054906101000a900473ffffffffffffffffffffffffffffffffffffffff1673ffffffffffffffffffffffffffffffffffffffff1661071f6109a9565b73ffffffffffffffffffffffffffffffffffffffff1614610775576040517f08c379a000000000000000000000000000000000000000000000000000000000815260040161076c90610df0565b60405180910390fd5b600160009054906101000a900473ffffffffffffffffffffffffffffffffffffffff1673ffffffffffffffffffffffffffffffffffffffff168373ffffffffffffffffffffffffffffffffffffffff1614610805576040517f08c379a00000000000000000000000000000000000000000000000000000000081526004016107fc90610e10565b60405180910390fd5b60008060009054906101000a900473ffffffffffffffffffffffffffffffffffffffff16905060008173ffffffffffffffffffffffffffffffffffffffff166385143ce6600260009054906101000a900473ffffffffffffffffffffffffffffffffffffffff16866040518363ffffffff1660e01b815260040161088a929190610d8a565b602060405180830381600087803b1580156108a457600080fd5b505af11580156108b8573d6000803e3d6000fd5b505050506040513d601f19601f820116820180604052508101906108dc9190610b72565b9050801561096c578473ffffffffffffffffffffffffffffffffffffffff16600260009054906101000a900473ffffffffffffffffffffffffffffffffffffffff1673ffffffffffffffffffffffffffffffffffffffff167fddf252ad1be2c89b69c2b068fc378daa952ba7f163c4a11628f55a4df523b3ef866040516109639190610e30565b60405180910390a35b60019250505092915050565b600092915050565b60008060009054906101000a900473ffffffffffffffffffffffffffffffffffffffff16905090565b600033905090565b60006109c46109bf84610e97565b610e66565b9050828152602081018484840111156109dc57600080fd5b6109e7848285610f38565b509392505050565b6000813590506109fe81610fab565b92915050565b600081519050610a1381610fc2565b92915050565b600082601f830112610a2a57600080fd5b8151610a3a8482602086016109b1565b91505092915050565b600081359050610a5281610fd9565b92915050565b600081519050610a6781610fd9565b92915050565b600081519050610a7c81610ff0565b92915050565b600060208284031215610a9457600080fd5b6000610aa2848285016109ef565b91505092915050565b60008060408385031215610abe57600080fd5b6000610acc858286016109ef565b9250506020610add858286016109ef565b9150509250929050565b600080600060608486031215610afc57600080fd5b6000610b0a868287016109ef565b9350506020610b1b868287016109ef565b9250506040610b2c86828701610a43565b9150509250925092565b60008060408385031215610b4957600080fd5b6000610b57858286016109ef565b9250506020610b6885828601610a43565b9150509250929050565b600060208284031215610b8457600080fd5b6000610b9284828501610a04565b91505092915050565b600060208284031215610bad57600080fd5b600082015167ffffffffffffffff811115610bc757600080fd5b610bd384828501610a19565b91505092915050565b600060208284031215610bee57600080fd5b6000610bfc84828501610a58565b91505092915050565b600060208284031215610c1757600080fd5b6000610c2584828501610a6d565b91505092915050565b610c3781610ee3565b82525050565b610c4681610ef5565b82525050565b6000610c5782610ec7565b610c618185610ed2565b9350610c71818560208601610f38565b610c7a81610f9a565b840191505092915050565b6000610c92603183610ed2565b91507f5452414e534645523a206f6e6c792062656e6966696369617279206f6620637260008301527f656469742063616e207472616e736665720000000000000000000000000000006020830152604082019050919050565b6000610cf8602783610ed2565b91507f5452414e534645523a2063616e206f6e6c79207472616e7366657220746f206360008301527f72656469746f72000000000000000000000000000000000000000000000000006020830152604082019050919050565b610d5a81610f21565b82525050565b610d6981610f2b565b82525050565b6000602082019050610d846000830184610c2e565b92915050565b6000604082019050610d9f6000830185610c2e565b610dac6020830184610d51565b9392505050565b6000602082019050610dc86000830184610c3d565b92915050565b60006020820190508181036000830152610de88184610c4c565b905092915050565b60006020820190508181036000830152610e0981610c85565b9050919050565b60006020820190508181036000830152610e2981610ceb565b9050919050565b6000602082019050610e456000830184610d51565b92915050565b6000602082019050610e606000830184610d60565b92915050565b6000604051905081810181811067ffffffffffffffff82111715610e8d57610e8c610f6b565b5b8060405250919050565b600067ffffffffffffffff821115610eb257610eb1610f6b565b5b601f19601f8301169050602081019050919050565b600081519050919050565b600082825260208201905092915050565b6000610eee82610f01565b9050919050565b60008115159050919050565b600073ffffffffffffffffffffffffffffffffffffffff82169050919050565b6000819050919050565b600060ff82169050919050565b60005b83811015610f56578082015181840152602081019050610f3b565b83811115610f65576000848401525b50505050565b7f4e487b7100000000000000000000000000000000000000000000000000000000600052604160045260246000fd5b6000601f19601f8301169050919050565b610fb481610ee3565b8114610fbf57600080fd5b50565b610fcb81610ef5565b8114610fd657600080fd5b50565b610fe281610f21565b8114610fed57600080fd5b50565b610ff981610f2b565b811461100457600080fd5b5056fea264697066735822122084b4eaf6779294f6730a5253f57dcada0c26fe5c6906e5e0056e11067601e01064736f6c63430008000033a2646970667358221220b681d43a2049f3a1eefb73b9865078eae452dfc6e29fd9436a8c675189890f0664736f6c63430008000033",
  "immutableReferences": {},
  "source": "// SPDX-License-Identifier: MIT\n// PrimusMoney Contracts v0.1\n\npragma solidity >=0.7.0 <0.9.0;\n\nimport \"./erc20/extensions/IERC20Metadata.sol\";\nimport \"./erc20/IERC20.sol\";\n\nimport \"./ERC20Credit.sol\";\n\n/**\n * @title CreditBook\n * @dev Manager merchant's credit book\n */\ncontract CreditBook {\n\n    address private _owner;\n\n    address private _currency_token;\n\n    string private _title;\n\n    string [] private _accounts;\n    mapping(address => address) private _erc20credits;\n\n    mapping(address => uint) private _creditlimits;\n    mapping(address => uint) private _balances;\n\n    constructor(address owneraddr, address currencyaddr, string memory booktitle) {\n        _owner = owneraddr;\n        _currency_token = currencyaddr;\n        _title = booktitle;\n    }\n\n    // views\n    function owner() public view returns (address) {\n        return _owner;\n    }\n\n    function currencyToken() public view returns (address) {\n        return _currency_token;\n    }\n\n     function title() public view returns (string memory) {\n        return _title;\n    }\n\n   function currencyName() public view virtual returns (string memory) {\n        IERC20Metadata tok = IERC20Metadata(_currency_token);\n        return tok.name();\n    }\n\n    function currencySymbol() public view virtual returns (string memory) {\n        IERC20Metadata tok = IERC20Metadata(_currency_token);\n        return tok.symbol();\n    }\n\n    function currencyDecimals() public view virtual returns (uint8) {\n        IERC20Metadata tok = IERC20Metadata(_currency_token);\n        return tok.decimals();\n    }\n\n    // client\n    function creditlimitOf(address client) public view virtual returns (uint256) {\n        return _creditlimits[client];\n    }\n\n    function balanceOf(address client) public view virtual returns (uint256) {\n        return _balances[client];\n    }\n\n   function creditToken(address client) public view virtual returns (address) {\n        address _credittokenaddr = _erc20credits[client];\n\n        if (_credittokenaddr == address(0))\n            return address(0);\n\n        ERC20Credit _credittoken = ERC20Credit(_credittokenaddr);\n\n        return address(_credittoken);\n   }  \n   \n    // transactions\n    function setTitle(string calldata newtitle) public virtual returns (string memory) {\n        require(msg.sender == _owner, \"Only for owner\");\n\n        string memory _old_title = _title;\n\n        _title = newtitle;\n\n        return _old_title;\n    }\n\n    // accounts\n    function accounts() public view returns( string  [] memory){\n        return _accounts;\n    }\n\n    function createAccount(string calldata accountdata, address client) public virtual returns (bool) {\n        require(client != address(0), \"Client address needed\");\n        require(_erc20credits[client] == address(0), \"Account for client already exists\");\n\n        _accounts.push(accountdata);\n        ERC20Credit _credittoken = new ERC20Credit(address(this), client);\n\n        _erc20credits[client] = address(_credittoken);\n \n        return true;\n   }\n\n   function updateCreditLimit(address client, uint256 limit) public virtual returns (uint256) {\n        uint _old_limit = _creditlimits[client];\n        uint _old_balance = _balances[client];\n\n        _creditlimits[client] = limit;\n\n        if (limit > _old_limit) {\n            _balances[client] = _old_balance + limit - _old_limit;\n        }\n        else {\n            if (_old_balance > _old_limit - limit)\n            _balances[client] = _old_balance - _old_limit + limit;\n            else\n            _balances[client] = 0;\n        }\n \n        return _creditlimits[client];\n   }\n\n   function payWithCredits(address client, uint256 amount) public virtual returns (bool) {\n        address _credittokenaddr = _erc20credits[client];\n        require(msg.sender == _credittokenaddr); // only credit token contract can call payWithCredits\n        uint _old_balance = _balances[client];\n\n        require(_old_balance >= amount, \"CREDIT: transfer amount exceeds balance\");\n\n        if (amount <= _old_balance) {\n            _balances[client] = _old_balance - amount;\n        }\n\n        return true;\n    }\n\n\n   function topupCredits(uint256 amount) public virtual returns (bool) {\n        address _client = msg.sender;\n        uint _current_limit = _creditlimits[_client];\n        uint _current_balance = _balances[_client];\n\n        require( (_current_limit - _current_balance) >= amount, \"TOPUP: amount exceeds ceiling\");\n\n        IERC20 _ccytok = IERC20(_currency_token);\n\n        uint256 _ccybalance = _ccytok.balanceOf(_client);\n \n        uint256 _ccyallowance = _ccytok.allowance(_client, address(this));\n\n\n        require(_ccybalance >= amount, \"TOPUP: balance of currency token is too low\");\n        require(_ccyallowance >= amount, \"TOPUP: check the currency allowance for contract\");\n\n        bool _done = _ccytok.transferFrom(_client, _owner, amount);\n\n        if (_done) {\n            _balances[_client] = _current_balance + amount;\n        }\n\n        return true;\n    }\n}",
  "sourcePath": "/home/frederic/development/p2pmoney-dev/var/lib/git/repos/javascript/primusmoney_mytokens_webapp/react_apps/my-pwa-apps/my-creditbook/contracts/CreditBook.sol",
  "compiler": {
    "name": "solc",
    "version": "0.8.0+commit.c7dfd78e.Emscripten.clang"
  },
  "schemaVersion": "3.3.4",
  "updatedAt": "2022-09-06T06:33:30.054Z",
  "devdoc": {
    "details": "Manager merchant's credit book",
    "kind": "dev",
    "methods": {},
    "title": "CreditBook",
    "version": 1
  },
  "userdoc": {
    "kind": "user",
    "methods": {},
    "version": 1
  }
}