{
  "contractName": "CreditBook",
  "abi": [
    {
      "inputs": [
        {
          "internalType": "address",
          "name": "owneraddr",
          "type": "address"
        },
        {
          "internalType": "address",
          "name": "currencyaddr",
          "type": "address"
        }
      ],
      "stateMutability": "nonpayable",
      "type": "constructor"
    },
    {
      "inputs": [],
      "name": "owner",
      "outputs": [
        {
          "internalType": "address",
          "name": "",
          "type": "address"
        }
      ],
      "stateMutability": "view",
      "type": "function"
    },
    {
      "inputs": [
        {
          "internalType": "address",
          "name": "client",
          "type": "address"
        }
      ],
      "name": "creditlimitOf",
      "outputs": [
        {
          "internalType": "uint256",
          "name": "",
          "type": "uint256"
        }
      ],
      "stateMutability": "view",
      "type": "function"
    },
    {
      "inputs": [
        {
          "internalType": "address",
          "name": "client",
          "type": "address"
        }
      ],
      "name": "balanceOf",
      "outputs": [
        {
          "internalType": "uint256",
          "name": "",
          "type": "uint256"
        }
      ],
      "stateMutability": "view",
      "type": "function"
    },
    {
      "inputs": [],
      "name": "currencyName",
      "outputs": [
        {
          "internalType": "string",
          "name": "",
          "type": "string"
        }
      ],
      "stateMutability": "view",
      "type": "function"
    },
    {
      "inputs": [],
      "name": "currencySymbol",
      "outputs": [
        {
          "internalType": "string",
          "name": "",
          "type": "string"
        }
      ],
      "stateMutability": "view",
      "type": "function"
    },
    {
      "inputs": [],
      "name": "currencyDecimals",
      "outputs": [
        {
          "internalType": "uint8",
          "name": "",
          "type": "uint8"
        }
      ],
      "stateMutability": "view",
      "type": "function"
    },
    {
      "inputs": [
        {
          "internalType": "address",
          "name": "client",
          "type": "address"
        }
      ],
      "name": "creditToken",
      "outputs": [
        {
          "internalType": "address",
          "name": "",
          "type": "address"
        }
      ],
      "stateMutability": "view",
      "type": "function"
    },
    {
      "inputs": [
        {
          "internalType": "address",
          "name": "client",
          "type": "address"
        }
      ],
      "name": "createAccount",
      "outputs": [
        {
          "internalType": "bool",
          "name": "",
          "type": "bool"
        }
      ],
      "stateMutability": "nonpayable",
      "type": "function"
    },
    {
      "inputs": [
        {
          "internalType": "address",
          "name": "client",
          "type": "address"
        },
        {
          "internalType": "uint256",
          "name": "limit",
          "type": "uint256"
        }
      ],
      "name": "updateCreditLimit",
      "outputs": [
        {
          "internalType": "uint256",
          "name": "",
          "type": "uint256"
        }
      ],
      "stateMutability": "nonpayable",
      "type": "function"
    },
    {
      "inputs": [
        {
          "internalType": "address",
          "name": "client",
          "type": "address"
        },
        {
          "internalType": "uint256",
          "name": "amount",
          "type": "uint256"
        }
      ],
      "name": "payWithCredits",
      "outputs": [
        {
          "internalType": "bool",
          "name": "",
          "type": "bool"
        }
      ],
      "stateMutability": "nonpayable",
      "type": "function"
    },
    {
      "inputs": [
        {
          "internalType": "uint256",
          "name": "amount",
          "type": "uint256"
        }
      ],
      "name": "topupCredits",
      "outputs": [
        {
          "internalType": "bool",
          "name": "",
          "type": "bool"
        }
      ],
      "stateMutability": "nonpayable",
      "type": "function"
    }
  ],
  "bytecode": "0x60806040523480156200001157600080fd5b5060405162002603380380620026038339818101604052810190620000379190620000d7565b816000806101000a81548173ffffffffffffffffffffffffffffffffffffffff021916908373ffffffffffffffffffffffffffffffffffffffff16021790555080600160006101000a81548173ffffffffffffffffffffffffffffffffffffffff021916908373ffffffffffffffffffffffffffffffffffffffff160217905550505062000166565b600081519050620000d1816200014c565b92915050565b60008060408385031215620000eb57600080fd5b6000620000fb85828601620000c0565b92505060206200010e85828601620000c0565b9150509250929050565b600062000125826200012c565b9050919050565b600073ffffffffffffffffffffffffffffffffffffffff82169050919050565b620001578162000118565b81146200016357600080fd5b50565b61248d80620001766000396000f3fe60806040523480156200001157600080fd5b5060043610620000b85760003560e01c80638da5cb5b116200007b5780638da5cb5b14620001a3578063968c420914620001c55780639859387b14620001e7578063a9016420146200021d578063b8a15f0d1462000253578063c6223c89146200028957620000b8565b806370a0823114620000bd5780637624388e14620000f357806383d4771b146200011557806385143ce6146200014b578063867011861462000181575b600080fd5b620000db6004803603810190620000d5919062000d82565b620002bf565b604051620000ea9190620010e3565b60405180910390f35b620000fd62000308565b6040516200010c919062001100565b60405180910390f35b6200013360048036038101906200012d919062000d82565b620003b8565b604051620001429190620010e3565b60405180910390f35b62000169600480360381019062000163919062000dae565b62000401565b6040516200017891906200105e565b60405180910390f35b6200018b620004f1565b6040516200019a91906200107b565b60405180910390f35b620001ad620005a7565b604051620001bc919062000fe7565b60405180910390f35b620001cf620005d0565b604051620001de91906200107b565b60405180910390f35b620002056004803603810190620001ff919062000d82565b62000686565b6040516200021491906200105e565b60405180910390f35b6200023b600480360381019062000235919062000d82565b620007e7565b6040516200024a919062000fe7565b60405180910390f35b6200027160048036038101906200026b919062000e60565b6200089d565b6040516200028091906200105e565b60405180910390f35b620002a76004803603810190620002a1919062000dae565b62000ac3565b604051620002b69190620010e3565b60405180910390f35b6000600460008373ffffffffffffffffffffffffffffffffffffffff1673ffffffffffffffffffffffffffffffffffffffff168152602001908152602001600020549050919050565b600080600160009054906101000a900473ffffffffffffffffffffffffffffffffffffffff1690508073ffffffffffffffffffffffffffffffffffffffff1663313ce5676040518163ffffffff1660e01b815260040160206040518083038186803b1580156200037757600080fd5b505afa1580156200038c573d6000803e3d6000fd5b505050506040513d601f19601f82011682018060405250810190620003b2919062000e8c565b91505090565b6000600360008373ffffffffffffffffffffffffffffffffffffffff1673ffffffffffffffffffffffffffffffffffffffff168152602001908152602001600020549050919050565b600080600460008573ffffffffffffffffffffffffffffffffffffffff1673ffffffffffffffffffffffffffffffffffffffff168152602001908152602001600020549050828110156200048c576040517f08c379a00000000000000000000000000000000000000000000000000000000081526004016200048390620010c1565b60405180910390fd5b808311620004e6578281620004a29190620011fd565b600460008673ffffffffffffffffffffffffffffffffffffffff1673ffffffffffffffffffffffffffffffffffffffff168152602001908152602001600020819055505b600191505092915050565b60606000600160009054906101000a900473ffffffffffffffffffffffffffffffffffffffff1690508073ffffffffffffffffffffffffffffffffffffffff166306fdde036040518163ffffffff1660e01b815260040160006040518083038186803b1580156200056157600080fd5b505afa15801562000576573d6000803e3d6000fd5b505050506040513d6000823e3d601f19601f82011682018060405250810190620005a1919062000e1b565b91505090565b60008060009054906101000a900473ffffffffffffffffffffffffffffffffffffffff16905090565b60606000600160009054906101000a900473ffffffffffffffffffffffffffffffffffffffff1690508073ffffffffffffffffffffffffffffffffffffffff166395d89b416040518163ffffffff1660e01b815260040160006040518083038186803b1580156200064057600080fd5b505afa15801562000655573d6000803e3d6000fd5b505050506040513d6000823e3d601f19601f8201168201806040525081019062000680919062000e1b565b91505090565b60008073ffffffffffffffffffffffffffffffffffffffff16600260008473ffffffffffffffffffffffffffffffffffffffff1673ffffffffffffffffffffffffffffffffffffffff16815260200190815260200160002060009054906101000a900473ffffffffffffffffffffffffffffffffffffffff1673ffffffffffffffffffffffffffffffffffffffff16146200072057600080fd5b60003083604051620007329062000ca6565b6200073f92919062001004565b604051809103906000f0801580156200075c573d6000803e3d6000fd5b50905080600260008573ffffffffffffffffffffffffffffffffffffffff1673ffffffffffffffffffffffffffffffffffffffff16815260200190815260200160002060006101000a81548173ffffffffffffffffffffffffffffffffffffffff021916908373ffffffffffffffffffffffffffffffffffffffff1602179055506001915050919050565b600080600260008473ffffffffffffffffffffffffffffffffffffffff1673ffffffffffffffffffffffffffffffffffffffff16815260200190815260200160002060009054906101000a900473ffffffffffffffffffffffffffffffffffffffff169050600073ffffffffffffffffffffffffffffffffffffffff168173ffffffffffffffffffffffffffffffffffffffff1614156200088d57600091505062000898565b600081905080925050505b919050565b6000803390506000600360008373ffffffffffffffffffffffffffffffffffffffff1673ffffffffffffffffffffffffffffffffffffffff1681526020019081526020016000205490506000600460008473ffffffffffffffffffffffffffffffffffffffff1673ffffffffffffffffffffffffffffffffffffffff1681526020019081526020016000205490508481836200093a9190620011fd565b11156200097e576040517f08c379a000000000000000000000000000000000000000000000000000000000815260040162000975906200109f565b60405180910390fd5b6000600160009054906101000a900473ffffffffffffffffffffffffffffffffffffffff16905060008173ffffffffffffffffffffffffffffffffffffffff1663a9059cbb60008054906101000a900473ffffffffffffffffffffffffffffffffffffffff16896040518363ffffffff1660e01b815260040162000a0492919062001031565b602060405180830381600087803b15801562000a1f57600080fd5b505af115801562000a34573d6000803e3d6000fd5b505050506040513d601f19601f8201168201806040525081019062000a5a919062000def565b9050801562000ab557868362000a719190620011a0565b600460008773ffffffffffffffffffffffffffffffffffffffff1673ffffffffffffffffffffffffffffffffffffffff168152602001908152602001600020819055505b600195505050505050919050565b600080600360008573ffffffffffffffffffffffffffffffffffffffff1673ffffffffffffffffffffffffffffffffffffffff1681526020019081526020016000205490506000600460008673ffffffffffffffffffffffffffffffffffffffff1673ffffffffffffffffffffffffffffffffffffffff16815260200190815260200160002054905083600360008773ffffffffffffffffffffffffffffffffffffffff1673ffffffffffffffffffffffffffffffffffffffff168152602001908152602001600020819055508184111562000bfd5781848262000ba89190620011a0565b62000bb49190620011fd565b600460008773ffffffffffffffffffffffffffffffffffffffff1673ffffffffffffffffffffffffffffffffffffffff1681526020019081526020016000208190555062000c5c565b83828262000c0c9190620011a0565b62000c189190620011fd565b600460008773ffffffffffffffffffffffffffffffffffffffff1673ffffffffffffffffffffffffffffffffffffffff168152602001908152602001600020819055505b600360008673ffffffffffffffffffffffffffffffffffffffff1673ffffffffffffffffffffffffffffffffffffffff168152602001908152602001600020549250505092915050565b6110bb806200139d83390190565b600062000ccb62000cc58462001151565b6200111d565b90508281526020810184848401111562000ce457600080fd5b62000cf18482856200128f565b509392505050565b60008135905062000d0a8162001334565b92915050565b60008151905062000d21816200134e565b92915050565b600082601f83011262000d3957600080fd5b815162000d4b84826020860162000cb4565b91505092915050565b60008135905062000d658162001368565b92915050565b60008151905062000d7c8162001382565b92915050565b60006020828403121562000d9557600080fd5b600062000da58482850162000cf9565b91505092915050565b6000806040838503121562000dc257600080fd5b600062000dd28582860162000cf9565b925050602062000de58582860162000d54565b9150509250929050565b60006020828403121562000e0257600080fd5b600062000e128482850162000d10565b91505092915050565b60006020828403121562000e2e57600080fd5b600082015167ffffffffffffffff81111562000e4957600080fd5b62000e578482850162000d27565b91505092915050565b60006020828403121562000e7357600080fd5b600062000e838482850162000d54565b91505092915050565b60006020828403121562000e9f57600080fd5b600062000eaf8482850162000d6b565b91505092915050565b62000ec38162001238565b82525050565b62000ed4816200124c565b82525050565b600062000ee78262001184565b62000ef381856200118f565b935062000f058185602086016200128f565b62000f108162001323565b840191505092915050565b600062000f2a601d836200118f565b91507f544f5055503a20616d6f756e742065786365656473206365696c696e670000006000830152602082019050919050565b600062000f6c6027836200118f565b91507f4352454449543a207472616e7366657220616d6f756e7420657863656564732060008301527f62616c616e6365000000000000000000000000000000000000000000000000006020830152604082019050919050565b62000fd08162001278565b82525050565b62000fe18162001282565b82525050565b600060208201905062000ffe600083018462000eb8565b92915050565b60006040820190506200101b600083018562000eb8565b6200102a602083018462000eb8565b9392505050565b600060408201905062001048600083018562000eb8565b62001057602083018462000fc5565b9392505050565b600060208201905062001075600083018462000ec9565b92915050565b6000602082019050818103600083015262001097818462000eda565b905092915050565b60006020820190508181036000830152620010ba8162000f1b565b9050919050565b60006020820190508181036000830152620010dc8162000f5d565b9050919050565b6000602082019050620010fa600083018462000fc5565b92915050565b600060208201905062001117600083018462000fd6565b92915050565b6000604051905081810181811067ffffffffffffffff82111715620011475762001146620012f4565b5b8060405250919050565b600067ffffffffffffffff8211156200116f576200116e620012f4565b5b601f19601f8301169050602081019050919050565b600081519050919050565b600082825260208201905092915050565b6000620011ad8262001278565b9150620011ba8362001278565b9250827fffffffffffffffffffffffffffffffffffffffffffffffffffffffffffffffff03821115620011f257620011f1620012c5565b5b828201905092915050565b60006200120a8262001278565b9150620012178362001278565b9250828210156200122d576200122c620012c5565b5b828203905092915050565b6000620012458262001258565b9050919050565b60008115159050919050565b600073ffffffffffffffffffffffffffffffffffffffff82169050919050565b6000819050919050565b600060ff82169050919050565b60005b83811015620012af57808201518184015260208101905062001292565b83811115620012bf576000848401525b50505050565b7f4e487b7100000000000000000000000000000000000000000000000000000000600052601160045260246000fd5b7f4e487b7100000000000000000000000000000000000000000000000000000000600052604160045260246000fd5b6000601f19601f8301169050919050565b6200133f8162001238565b81146200134b57600080fd5b50565b62001359816200124c565b81146200136557600080fd5b50565b620013738162001278565b81146200137f57600080fd5b50565b6200138d8162001282565b81146200139957600080fd5b5056fe60806040523480156200001157600080fd5b50604051620010bb380380620010bb8339818101604052810190620000379190620001ec565b816000806101000a81548173ffffffffffffffffffffffffffffffffffffffff021916908373ffffffffffffffffffffffffffffffffffffffff16021790555060008060009054906101000a900473ffffffffffffffffffffffffffffffffffffffff1690508073ffffffffffffffffffffffffffffffffffffffff16638da5cb5b6040518163ffffffff1660e01b815260040160206040518083038186803b158015620000e457600080fd5b505afa158015620000f9573d6000803e3d6000fd5b505050506040513d601f19601f820116820180604052508101906200011f9190620001c0565b600160006101000a81548173ffffffffffffffffffffffffffffffffffffffff021916908373ffffffffffffffffffffffffffffffffffffffff16021790555081600260006101000a81548173ffffffffffffffffffffffffffffffffffffffff021916908373ffffffffffffffffffffffffffffffffffffffff1602179055505050506200027b565b600081519050620001ba8162000261565b92915050565b600060208284031215620001d357600080fd5b6000620001e384828501620001a9565b91505092915050565b600080604083850312156200020057600080fd5b60006200021085828601620001a9565b92505060206200022385828601620001a9565b9150509250929050565b60006200023a8262000241565b9050919050565b600073ffffffffffffffffffffffffffffffffffffffff82169050919050565b6200026c816200022d565b81146200027857600080fd5b50565b610e30806200028b6000396000f3fe608060405234801561001057600080fd5b50600436106100b45760003560e01c806370a082311161007157806370a08231146101a357806395d89b41146101d3578063a457c2d7146101f1578063a9059cbb14610221578063dd62ed3e14610251578063f7a7161514610281576100b4565b806306fdde03146100b9578063095ea7b3146100d757806318160ddd1461010757806323b872dd14610125578063313ce567146101555780633950935114610173575b600080fd5b6100c161029f565b6040516100ce9190610c01565b60405180910390f35b6100f160048036038101906100ec9190610a35565b610350565b6040516100fe9190610be6565b60405180910390f35b61010f610358565b60405161011c9190610c23565b60405180910390f35b61013f600480360381019061013a91906109e6565b61042f565b60405161014c9190610be6565b60405180910390f35b61015d610438565b60405161016a9190610c3e565b60405180910390f35b61018d60048036038101906101889190610a35565b6104e2565b60405161019a9190610be6565b60405180910390f35b6101bd60048036038101906101b89190610981565b6104ea565b6040516101ca9190610c23565b60405180910390f35b6101db610623565b6040516101e89190610c01565b60405180910390f35b61020b60048036038101906102069190610a35565b6106d4565b6040516102189190610be6565b60405180910390f35b61023b60048036038101906102369190610a35565b6106dc565b6040516102489190610be6565b60405180910390f35b61026b600480360381019061026691906109aa565b610877565b6040516102789190610c23565b60405180910390f35b61028961087f565b6040516102969190610ba2565b60405180910390f35b606060008060009054906101000a900473ffffffffffffffffffffffffffffffffffffffff1690508073ffffffffffffffffffffffffffffffffffffffff1663867011866040518163ffffffff1660e01b815260040160006040518083038186803b15801561030d57600080fd5b505afa158015610321573d6000803e3d6000fd5b505050506040513d6000823e3d601f19601f8201168201806040525081019061034a9190610a9a565b91505090565b600092915050565b60008060008054906101000a900473ffffffffffffffffffffffffffffffffffffffff1690508073ffffffffffffffffffffffffffffffffffffffff166383d4771b600260009054906101000a900473ffffffffffffffffffffffffffffffffffffffff166040518263ffffffff1660e01b81526004016103d99190610ba2565b60206040518083038186803b1580156103f157600080fd5b505afa158015610405573d6000803e3d6000fd5b505050506040513d601f19601f820116820180604052508101906104299190610adb565b91505090565b60009392505050565b60008060008054906101000a900473ffffffffffffffffffffffffffffffffffffffff1690508073ffffffffffffffffffffffffffffffffffffffff16637624388e6040518163ffffffff1660e01b815260040160206040518083038186803b1580156104a457600080fd5b505afa1580156104b8573d6000803e3d6000fd5b505050506040513d601f19601f820116820180604052508101906104dc9190610b04565b91505090565b600092915050565b60008060008054906101000a900473ffffffffffffffffffffffffffffffffffffffff169050600260009054906101000a900473ffffffffffffffffffffffffffffffffffffffff1673ffffffffffffffffffffffffffffffffffffffff168373ffffffffffffffffffffffffffffffffffffffff161461056f57600091505061061e565b8073ffffffffffffffffffffffffffffffffffffffff166370a08231600260009054906101000a900473ffffffffffffffffffffffffffffffffffffffff166040518263ffffffff1660e01b81526004016105ca9190610ba2565b60206040518083038186803b1580156105e257600080fd5b505afa1580156105f6573d6000803e3d6000fd5b505050506040513d601f19601f8201168201806040525081019061061a9190610adb565b9150505b919050565b606060008060009054906101000a900473ffffffffffffffffffffffffffffffffffffffff1690508073ffffffffffffffffffffffffffffffffffffffff1663968c42096040518163ffffffff1660e01b815260040160006040518083038186803b15801561069157600080fd5b505afa1580156106a5573d6000803e3d6000fd5b505050506040513d6000823e3d601f19601f820116820180604052508101906106ce9190610a9a565b91505090565b600092915050565b6000600260009054906101000a900473ffffffffffffffffffffffffffffffffffffffff1673ffffffffffffffffffffffffffffffffffffffff1661071f6108a8565b73ffffffffffffffffffffffffffffffffffffffff161461073f57600080fd5b600160009054906101000a900473ffffffffffffffffffffffffffffffffffffffff1673ffffffffffffffffffffffffffffffffffffffff168373ffffffffffffffffffffffffffffffffffffffff161461079957600080fd5b60008060009054906101000a900473ffffffffffffffffffffffffffffffffffffffff1690508073ffffffffffffffffffffffffffffffffffffffff166385143ce6600260009054906101000a900473ffffffffffffffffffffffffffffffffffffffff16856040518363ffffffff1660e01b815260040161081c929190610bbd565b602060405180830381600087803b15801561083657600080fd5b505af115801561084a573d6000803e3d6000fd5b505050506040513d601f19601f8201168201806040525081019061086e9190610a71565b91505092915050565b600092915050565b60008060009054906101000a900473ffffffffffffffffffffffffffffffffffffffff16905090565b600033905090565b60006108c36108be84610c8a565b610c59565b9050828152602081018484840111156108db57600080fd5b6108e6848285610d2b565b509392505050565b6000813590506108fd81610d9e565b92915050565b60008151905061091281610db5565b92915050565b600082601f83011261092957600080fd5b81516109398482602086016108b0565b91505092915050565b60008135905061095181610dcc565b92915050565b60008151905061096681610dcc565b92915050565b60008151905061097b81610de3565b92915050565b60006020828403121561099357600080fd5b60006109a1848285016108ee565b91505092915050565b600080604083850312156109bd57600080fd5b60006109cb858286016108ee565b92505060206109dc858286016108ee565b9150509250929050565b6000806000606084860312156109fb57600080fd5b6000610a09868287016108ee565b9350506020610a1a868287016108ee565b9250506040610a2b86828701610942565b9150509250925092565b60008060408385031215610a4857600080fd5b6000610a56858286016108ee565b9250506020610a6785828601610942565b9150509250929050565b600060208284031215610a8357600080fd5b6000610a9184828501610903565b91505092915050565b600060208284031215610aac57600080fd5b600082015167ffffffffffffffff811115610ac657600080fd5b610ad284828501610918565b91505092915050565b600060208284031215610aed57600080fd5b6000610afb84828501610957565b91505092915050565b600060208284031215610b1657600080fd5b6000610b248482850161096c565b91505092915050565b610b3681610cd6565b82525050565b610b4581610ce8565b82525050565b6000610b5682610cba565b610b608185610cc5565b9350610b70818560208601610d2b565b610b7981610d8d565b840191505092915050565b610b8d81610d14565b82525050565b610b9c81610d1e565b82525050565b6000602082019050610bb76000830184610b2d565b92915050565b6000604082019050610bd26000830185610b2d565b610bdf6020830184610b84565b9392505050565b6000602082019050610bfb6000830184610b3c565b92915050565b60006020820190508181036000830152610c1b8184610b4b565b905092915050565b6000602082019050610c386000830184610b84565b92915050565b6000602082019050610c536000830184610b93565b92915050565b6000604051905081810181811067ffffffffffffffff82111715610c8057610c7f610d5e565b5b8060405250919050565b600067ffffffffffffffff821115610ca557610ca4610d5e565b5b601f19601f8301169050602081019050919050565b600081519050919050565b600082825260208201905092915050565b6000610ce182610cf4565b9050919050565b60008115159050919050565b600073ffffffffffffffffffffffffffffffffffffffff82169050919050565b6000819050919050565b600060ff82169050919050565b60005b83811015610d49578082015181840152602081019050610d2e565b83811115610d58576000848401525b50505050565b7f4e487b7100000000000000000000000000000000000000000000000000000000600052604160045260246000fd5b6000601f19601f8301169050919050565b610da781610cd6565b8114610db257600080fd5b50565b610dbe81610ce8565b8114610dc957600080fd5b50565b610dd581610d14565b8114610de057600080fd5b50565b610dec81610d1e565b8114610df757600080fd5b5056fea2646970667358221220aa125c6fae8f8e36a99e6986334b5bd69f948779a708e5527effaf39fb006a8c64736f6c63430008000033a264697066735822122084015d203f907e046748696a5034948ef95a114281f426db32175cc8fee3838564736f6c63430008000033",
  "immutableReferences": {},
  "source": "// SPDX-License-Identifier: GPL-3.0\n\npragma solidity >=0.7.0 <0.9.0;\n\nimport \"./erc20/extensions/IERC20Metadata.sol\";\nimport \"./erc20/IERC20.sol\";\n\nimport \"./ERC20Credit.sol\";\n\n/**\n * @title CreditBook\n * @dev Manager merchant's credit book\n */\ncontract CreditBook {\n\n    address private _owner;\n\n    address private _currency_token;\n\n    mapping(address => address) private _accounts;\n\n    mapping(address => uint) private _creditlimits;\n    mapping(address => uint) private _balances;\n\n    constructor(address owneraddr, address currencyaddr) {\n        _owner = owneraddr;\n        _currency_token = currencyaddr;\n    }\n\n    // views\n   function owner() public view returns (address) {\n        return _owner;\n    }\n\n   function creditlimitOf(address client) public view virtual returns (uint256) {\n        return _creditlimits[client];\n    }\n\n    function balanceOf(address client) public view virtual returns (uint256) {\n        return _balances[client];\n    }\n\n    function currencyName() public view virtual returns (string memory) {\n        IERC20Metadata tok = IERC20Metadata(_currency_token);\n        return tok.name();\n    }\n\n    function currencySymbol() public view virtual returns (string memory) {\n        IERC20Metadata tok = IERC20Metadata(_currency_token);\n        return tok.symbol();\n    }\n\n    function currencyDecimals() public view virtual returns (uint8) {\n        IERC20Metadata tok = IERC20Metadata(_currency_token);\n        return tok.decimals();\n    }\n\n   function creditToken(address client) public view virtual returns (address) {\n        address _credittokenaddr = _accounts[client];\n\n        if (_credittokenaddr == address(0))\n            return address(0);\n\n        ERC20Credit _credittoken = ERC20Credit(_credittokenaddr);\n\n        return address(_credittoken);\n   }  \n   \n    // transactions\n    function createAccount(address client) public virtual returns (bool) {\n        require(_accounts[client] == address(0));\n\n        ERC20Credit _credittoken = new ERC20Credit(address(this), client);\n\n        _accounts[client] = address(_credittoken);\n \n        return true;\n   }\n\n   function updateCreditLimit(address client, uint256 limit) public virtual returns (uint256) {\n        uint _old_limit = _creditlimits[client];\n        uint _old_balance = _balances[client];\n\n        _creditlimits[client] = limit;\n\n        if (limit > _old_limit) {\n            _balances[client] = _old_balance + limit - _old_limit;\n        }\n        else {\n            _balances[client] = _old_balance + _old_limit - limit;\n        }\n \n        return _creditlimits[client];\n   }\n\n   function payWithCredits(address client, uint256 amount) public virtual returns (bool) {\n        uint _old_balance = _balances[client];\n\n        require(_old_balance >= amount, \"CREDIT: transfer amount exceeds balance\");\n\n        if (amount <= _old_balance) {\n            _balances[client] = _old_balance - amount;\n        }\n\n        return true;\n    }\n\n\n   function topupCredits(uint256 amount) public virtual returns (bool) {\n        address _client = msg.sender;\n        uint _current_limit = _creditlimits[_client];\n        uint _current_balance = _balances[_client];\n\n        require( (_current_limit - _current_balance) <= amount, \"TOPUP: amount exceeds ceiling\");\n\n        IERC20 tok = IERC20(_currency_token);\n\n        bool _done = tok.transfer(_owner, amount);\n\n        if (_done) {\n            _balances[_client] = _current_balance + amount;\n        }\n\n        return true;\n    }\n}",
  "sourcePath": "/home/frederic/development/p2pmoney-dev/var/lib/git/repos/javascript/primusmoney_mytokens_webapp/react_apps/my-pwa-apps/my-creditbook/contracts/CreditBook.sol",
  "compiler": {
    "name": "solc",
    "version": "0.8.0+commit.c7dfd78e.Emscripten.clang"
  },
  "schemaVersion": "3.3.4",
  "updatedAt": "2022-08-22T14:41:18.163Z",
  "devdoc": {
    "details": "Manager merchant's credit book",
    "kind": "dev",
    "methods": {},
    "title": "CreditBook",
    "version": 1
  },
  "userdoc": {
    "kind": "user",
    "methods": {},
    "version": 1
  }
}