{
  "contractName": "CreditBook",
  "abi": [
    {
      "inputs": [
        {
          "internalType": "address",
          "name": "owneraddr",
          "type": "address"
        },
        {
          "internalType": "address",
          "name": "currencyaddr",
          "type": "address"
        },
        {
          "internalType": "string",
          "name": "booktitle",
          "type": "string"
        }
      ],
      "stateMutability": "nonpayable",
      "type": "constructor"
    },
    {
      "inputs": [],
      "name": "owner",
      "outputs": [
        {
          "internalType": "address",
          "name": "",
          "type": "address"
        }
      ],
      "stateMutability": "view",
      "type": "function"
    },
    {
      "inputs": [],
      "name": "currencyToken",
      "outputs": [
        {
          "internalType": "address",
          "name": "",
          "type": "address"
        }
      ],
      "stateMutability": "view",
      "type": "function"
    },
    {
      "inputs": [],
      "name": "title",
      "outputs": [
        {
          "internalType": "string",
          "name": "",
          "type": "string"
        }
      ],
      "stateMutability": "view",
      "type": "function"
    },
    {
      "inputs": [],
      "name": "currencyName",
      "outputs": [
        {
          "internalType": "string",
          "name": "",
          "type": "string"
        }
      ],
      "stateMutability": "view",
      "type": "function"
    },
    {
      "inputs": [],
      "name": "currencySymbol",
      "outputs": [
        {
          "internalType": "string",
          "name": "",
          "type": "string"
        }
      ],
      "stateMutability": "view",
      "type": "function"
    },
    {
      "inputs": [],
      "name": "currencyDecimals",
      "outputs": [
        {
          "internalType": "uint8",
          "name": "",
          "type": "uint8"
        }
      ],
      "stateMutability": "view",
      "type": "function"
    },
    {
      "inputs": [
        {
          "internalType": "address",
          "name": "client",
          "type": "address"
        }
      ],
      "name": "creditlimitOf",
      "outputs": [
        {
          "internalType": "uint256",
          "name": "",
          "type": "uint256"
        }
      ],
      "stateMutability": "view",
      "type": "function"
    },
    {
      "inputs": [
        {
          "internalType": "address",
          "name": "client",
          "type": "address"
        }
      ],
      "name": "balanceOf",
      "outputs": [
        {
          "internalType": "uint256",
          "name": "",
          "type": "uint256"
        }
      ],
      "stateMutability": "view",
      "type": "function"
    },
    {
      "inputs": [
        {
          "internalType": "address",
          "name": "client",
          "type": "address"
        }
      ],
      "name": "creditToken",
      "outputs": [
        {
          "internalType": "address",
          "name": "",
          "type": "address"
        }
      ],
      "stateMutability": "view",
      "type": "function"
    },
    {
      "inputs": [
        {
          "internalType": "string",
          "name": "newtitle",
          "type": "string"
        }
      ],
      "name": "setTitle",
      "outputs": [
        {
          "internalType": "string",
          "name": "",
          "type": "string"
        }
      ],
      "stateMutability": "nonpayable",
      "type": "function"
    },
    {
      "inputs": [],
      "name": "accounts",
      "outputs": [
        {
          "internalType": "string[]",
          "name": "",
          "type": "string[]"
        }
      ],
      "stateMutability": "view",
      "type": "function"
    },
    {
      "inputs": [
        {
          "internalType": "string",
          "name": "accountdata",
          "type": "string"
        },
        {
          "internalType": "address",
          "name": "client",
          "type": "address"
        }
      ],
      "name": "createAccount",
      "outputs": [
        {
          "internalType": "bool",
          "name": "",
          "type": "bool"
        }
      ],
      "stateMutability": "nonpayable",
      "type": "function"
    },
    {
      "inputs": [
        {
          "internalType": "address",
          "name": "client",
          "type": "address"
        },
        {
          "internalType": "uint256",
          "name": "limit",
          "type": "uint256"
        }
      ],
      "name": "updateCreditLimit",
      "outputs": [
        {
          "internalType": "uint256",
          "name": "",
          "type": "uint256"
        }
      ],
      "stateMutability": "nonpayable",
      "type": "function"
    },
    {
      "inputs": [
        {
          "internalType": "address",
          "name": "client",
          "type": "address"
        },
        {
          "internalType": "uint256",
          "name": "amount",
          "type": "uint256"
        }
      ],
      "name": "payWithCredits",
      "outputs": [
        {
          "internalType": "bool",
          "name": "",
          "type": "bool"
        }
      ],
      "stateMutability": "nonpayable",
      "type": "function"
    },
    {
      "inputs": [
        {
          "internalType": "uint256",
          "name": "amount",
          "type": "uint256"
        }
      ],
      "name": "topupCredits",
      "outputs": [
        {
          "internalType": "bool",
          "name": "",
          "type": "bool"
        }
      ],
      "stateMutability": "nonpayable",
      "type": "function"
    }
  ],
  "bytecode": "0x60806040523480156200001157600080fd5b506040516200326d3803806200326d833981810160405281019062000037919062000213565b826000806101000a81548173ffffffffffffffffffffffffffffffffffffffff021916908373ffffffffffffffffffffffffffffffffffffffff16021790555081600160006101000a81548173ffffffffffffffffffffffffffffffffffffffff021916908373ffffffffffffffffffffffffffffffffffffffff1602179055508060029080519060200190620000d0929190620000da565b5050505062000401565b828054620000e89062000353565b90600052602060002090601f0160209004810192826200010c576000855562000158565b82601f106200012757805160ff191683800117855562000158565b8280016001018555821562000158579182015b82811115620001575782518255916020019190600101906200013a565b5b5090506200016791906200016b565b5090565b5b80821115620001865760008160009055506001016200016c565b5090565b6000620001a16200019b84620002b6565b62000282565b905082815260208101848484011115620001ba57600080fd5b620001c78482856200031d565b509392505050565b600081519050620001e081620003e7565b92915050565b600082601f830112620001f857600080fd5b81516200020a8482602086016200018a565b91505092915050565b6000806000606084860312156200022957600080fd5b60006200023986828701620001cf565b93505060206200024c86828701620001cf565b925050604084015167ffffffffffffffff8111156200026a57600080fd5b6200027886828701620001e6565b9150509250925092565b6000604051905081810181811067ffffffffffffffff82111715620002ac57620002ab620003b8565b5b8060405250919050565b600067ffffffffffffffff821115620002d457620002d3620003b8565b5b601f19601f8301169050602081019050919050565b6000620002f682620002fd565b9050919050565b600073ffffffffffffffffffffffffffffffffffffffff82169050919050565b60005b838110156200033d57808201518184015260208101905062000320565b838111156200034d576000848401525b50505050565b600060028204905060018216806200036c57607f821691505b6020821081141562000383576200038262000389565b5b50919050565b7f4e487b7100000000000000000000000000000000000000000000000000000000600052602260045260246000fd5b7f4e487b7100000000000000000000000000000000000000000000000000000000600052604160045260246000fd5b620003f281620002e9565b8114620003fe57600080fd5b50565b612e5c80620004116000396000f3fe60806040523480156200001157600080fd5b50600436106200010c5760003560e01c806383d4771b11620000a5578063968c4209116200006f578063968c420914620002eb578063a9016420146200030d578063b8a15f0d1462000343578063c6223c891462000379576200010c565b806383d4771b146200023b57806385143ce614620002715780638670118614620002a75780638da5cb5b14620002c9576200010c565b806370a0823111620000e757806370a08231146200017757806372910be014620001ad57806373b1e6d814620001e35780637624388e1462000219576200010c565b80634a79d50c146200011157806368cd03f614620001335780636b2fa3741462000155575b600080fd5b6200011b620003af565b6040516200012a919062001935565b60405180910390f35b6200013d62000449565b6040516200014c9190620018f4565b60405180910390f35b6200015f6200052c565b6040516200016e91906200187d565b60405180910390f35b6200019560048036038101906200018f9190620013ad565b62000556565b604051620001a4919062001a03565b60405180910390f35b620001cb6004803603810190620001c5919062001446565b6200059f565b604051620001da919062001935565b60405180910390f35b620002016004803603810190620001fb91906200148f565b620006e7565b60405162000210919062001918565b60405180910390f35b6200022362000935565b60405162000232919062001a20565b60405180910390f35b620002596004803603810190620002539190620013ad565b620009e5565b60405162000268919062001a03565b60405180910390f35b6200028f6004803603810190620002899190620013d9565b62000a2e565b6040516200029e919062001918565b60405180910390f35b620002b162000b1e565b604051620002c0919062001935565b60405180910390f35b620002d362000bd4565b604051620002e291906200187d565b60405180910390f35b620002f562000bfd565b60405162000304919062001935565b60405180910390f35b6200032b6004803603810190620003259190620013ad565b62000cb3565b6040516200033a91906200187d565b60405180910390f35b6200036160048036038101906200035b919062001532565b62000d69565b60405162000370919062001918565b60405180910390f35b620003976004803603810190620003919190620013d9565b62000f8f565b604051620003a6919062001a03565b60405180910390f35b606060028054620003c09062001c2f565b80601f0160208091040260200160405190810160405280929190818152602001828054620003ee9062001c2f565b80156200043f5780601f1062000413576101008083540402835291602001916200043f565b820191906000526020600020905b8154815290600101906020018083116200042157829003601f168201915b5050505050905090565b60606003805480602002602001604051908101604052809291908181526020016000905b82821015620005235783829060005260206000200180546200048f9062001c2f565b80601f0160208091040260200160405190810160405280929190818152602001828054620004bd9062001c2f565b80156200050e5780601f10620004e2576101008083540402835291602001916200050e565b820191906000526020600020905b815481529060010190602001808311620004f057829003601f168201915b5050505050815260200190600101906200046d565b50505050905090565b6000600160009054906101000a900473ffffffffffffffffffffffffffffffffffffffff16905090565b6000600660008373ffffffffffffffffffffffffffffffffffffffff1673ffffffffffffffffffffffffffffffffffffffff168152602001908152602001600020549050919050565b606060008054906101000a900473ffffffffffffffffffffffffffffffffffffffff1673ffffffffffffffffffffffffffffffffffffffff163373ffffffffffffffffffffffffffffffffffffffff161462000632576040517f08c379a00000000000000000000000000000000000000000000000000000000081526004016200062990620019e1565b60405180910390fd5b600060028054620006439062001c2f565b80601f0160208091040260200160405190810160405280929190818152602001828054620006719062001c2f565b8015620006c25780601f106200069657610100808354040283529160200191620006c2565b820191906000526020600020905b815481529060010190602001808311620006a457829003601f168201915b50505050509050838360029190620006dc929190620011d4565b508091505092915050565b60008073ffffffffffffffffffffffffffffffffffffffff168273ffffffffffffffffffffffffffffffffffffffff1614156200075b576040517f08c379a0000000000000000000000000000000000000000000000000000000008152600401620007529062001959565b60405180910390fd5b600073ffffffffffffffffffffffffffffffffffffffff16600460008473ffffffffffffffffffffffffffffffffffffffff1673ffffffffffffffffffffffffffffffffffffffff16815260200190815260200160002060009054906101000a900473ffffffffffffffffffffffffffffffffffffffff1673ffffffffffffffffffffffffffffffffffffffff16146200082c576040517f08c379a000000000000000000000000000000000000000000000000000000000815260040162000823906200197b565b60405180910390fd5b60038484909180600181540180825580915050600190039060005260206000200160009091929091929091929091925091906200086b929190620011d4565b50600030836040516200087e9062001265565b6200088b9291906200189a565b604051809103906000f080158015620008a8573d6000803e3d6000fd5b50905080600460008573ffffffffffffffffffffffffffffffffffffffff1673ffffffffffffffffffffffffffffffffffffffff16815260200190815260200160002060006101000a81548173ffffffffffffffffffffffffffffffffffffffff021916908373ffffffffffffffffffffffffffffffffffffffff16021790555060019150509392505050565b600080600160009054906101000a900473ffffffffffffffffffffffffffffffffffffffff1690508073ffffffffffffffffffffffffffffffffffffffff1663313ce5676040518163ffffffff1660e01b815260040160206040518083038186803b158015620009a457600080fd5b505afa158015620009b9573d6000803e3d6000fd5b505050506040513d601f19601f82011682018060405250810190620009df91906200155e565b91505090565b6000600560008373ffffffffffffffffffffffffffffffffffffffff1673ffffffffffffffffffffffffffffffffffffffff168152602001908152602001600020549050919050565b600080600660008573ffffffffffffffffffffffffffffffffffffffff1673ffffffffffffffffffffffffffffffffffffffff1681526020019081526020016000205490508281101562000ab9576040517f08c379a000000000000000000000000000000000000000000000000000000000815260040162000ab090620019bf565b60405180910390fd5b80831162000b1357828162000acf919062001b67565b600660008673ffffffffffffffffffffffffffffffffffffffff1673ffffffffffffffffffffffffffffffffffffffff168152602001908152602001600020819055505b600191505092915050565b60606000600160009054906101000a900473ffffffffffffffffffffffffffffffffffffffff1690508073ffffffffffffffffffffffffffffffffffffffff166306fdde036040518163ffffffff1660e01b815260040160006040518083038186803b15801562000b8e57600080fd5b505afa15801562000ba3573d6000803e3d6000fd5b505050506040513d6000823e3d601f19601f8201168201806040525081019062000bce9190620014ed565b91505090565b60008060009054906101000a900473ffffffffffffffffffffffffffffffffffffffff16905090565b60606000600160009054906101000a900473ffffffffffffffffffffffffffffffffffffffff1690508073ffffffffffffffffffffffffffffffffffffffff166395d89b416040518163ffffffff1660e01b815260040160006040518083038186803b15801562000c6d57600080fd5b505afa15801562000c82573d6000803e3d6000fd5b505050506040513d6000823e3d601f19601f8201168201806040525081019062000cad9190620014ed565b91505090565b600080600460008473ffffffffffffffffffffffffffffffffffffffff1673ffffffffffffffffffffffffffffffffffffffff16815260200190815260200160002060009054906101000a900473ffffffffffffffffffffffffffffffffffffffff169050600073ffffffffffffffffffffffffffffffffffffffff168173ffffffffffffffffffffffffffffffffffffffff16141562000d5957600091505062000d64565b600081905080925050505b919050565b6000803390506000600560008373ffffffffffffffffffffffffffffffffffffffff1673ffffffffffffffffffffffffffffffffffffffff1681526020019081526020016000205490506000600660008473ffffffffffffffffffffffffffffffffffffffff1673ffffffffffffffffffffffffffffffffffffffff16815260200190815260200160002054905084818362000e06919062001b67565b101562000e4a576040517f08c379a000000000000000000000000000000000000000000000000000000000815260040162000e41906200199d565b60405180910390fd5b6000600160009054906101000a900473ffffffffffffffffffffffffffffffffffffffff16905060008173ffffffffffffffffffffffffffffffffffffffff1663a9059cbb60008054906101000a900473ffffffffffffffffffffffffffffffffffffffff16896040518363ffffffff1660e01b815260040162000ed0929190620018c7565b602060405180830381600087803b15801562000eeb57600080fd5b505af115801562000f00573d6000803e3d6000fd5b505050506040513d601f19601f8201168201806040525081019062000f2691906200141a565b9050801562000f8157868362000f3d919062001b0a565b600660008773ffffffffffffffffffffffffffffffffffffffff1673ffffffffffffffffffffffffffffffffffffffff168152602001908152602001600020819055505b600195505050505050919050565b600080600560008573ffffffffffffffffffffffffffffffffffffffff1673ffffffffffffffffffffffffffffffffffffffff1681526020019081526020016000205490506000600660008673ffffffffffffffffffffffffffffffffffffffff1673ffffffffffffffffffffffffffffffffffffffff16815260200190815260200160002054905083600560008773ffffffffffffffffffffffffffffffffffffffff1673ffffffffffffffffffffffffffffffffffffffff1681526020019081526020016000208190555081841115620010c95781848262001074919062001b0a565b62001080919062001b67565b600660008773ffffffffffffffffffffffffffffffffffffffff1673ffffffffffffffffffffffffffffffffffffffff168152602001908152602001600020819055506200118a565b8382620010d7919062001b67565b8111156200114357838282620010ee919062001b67565b620010fa919062001b0a565b600660008773ffffffffffffffffffffffffffffffffffffffff1673ffffffffffffffffffffffffffffffffffffffff1681526020019081526020016000208190555062001189565b6000600660008773ffffffffffffffffffffffffffffffffffffffff1673ffffffffffffffffffffffffffffffffffffffff168152602001908152602001600020819055505b5b600560008673ffffffffffffffffffffffffffffffffffffffff1673ffffffffffffffffffffffffffffffffffffffff168152602001908152602001600020549250505092915050565b828054620011e29062001c2f565b90600052602060002090601f01602090048101928262001206576000855562001252565b82601f106200122157803560ff191683800117855562001252565b8280016001018555821562001252579182015b828111156200125157823582559160200191906001019062001234565b5b50905062001261919062001273565b5090565b6110bb8062001d6c83390190565b5b808211156200128e57600081600090555060010162001274565b5090565b6000620012a9620012a38462001a71565b62001a3d565b905082815260208101848484011115620012c257600080fd5b620012cf84828562001bf9565b509392505050565b600081359050620012e88162001d03565b92915050565b600081519050620012ff8162001d1d565b92915050565b60008083601f8401126200131857600080fd5b8235905067ffffffffffffffff8111156200133257600080fd5b6020830191508360018202830111156200134b57600080fd5b9250929050565b600082601f8301126200136457600080fd5b81516200137684826020860162001292565b91505092915050565b600081359050620013908162001d37565b92915050565b600081519050620013a78162001d51565b92915050565b600060208284031215620013c057600080fd5b6000620013d084828501620012d7565b91505092915050565b60008060408385031215620013ed57600080fd5b6000620013fd85828601620012d7565b925050602062001410858286016200137f565b9150509250929050565b6000602082840312156200142d57600080fd5b60006200143d84828501620012ee565b91505092915050565b600080602083850312156200145a57600080fd5b600083013567ffffffffffffffff8111156200147557600080fd5b620014838582860162001305565b92509250509250929050565b600080600060408486031215620014a557600080fd5b600084013567ffffffffffffffff811115620014c057600080fd5b620014ce8682870162001305565b93509350506020620014e386828701620012d7565b9150509250925092565b6000602082840312156200150057600080fd5b600082015167ffffffffffffffff8111156200151b57600080fd5b620015298482850162001352565b91505092915050565b6000602082840312156200154557600080fd5b600062001555848285016200137f565b91505092915050565b6000602082840312156200157157600080fd5b6000620015818482850162001396565b91505092915050565b600062001598838362001643565b905092915050565b620015ab8162001ba2565b82525050565b6000620015be8262001ab4565b620015ca818562001ad7565b935083602082028501620015de8562001aa4565b8060005b85811015620016205784840389528151620015fe85826200158a565b94506200160b8362001aca565b925060208a01995050600181019050620015e2565b50829750879550505050505092915050565b6200163d8162001bb6565b82525050565b6000620016508262001abf565b6200165c818562001ae8565b93506200166e81856020860162001bf9565b620016798162001cf2565b840191505092915050565b6000620016918262001abf565b6200169d818562001af9565b9350620016af81856020860162001bf9565b620016ba8162001cf2565b840191505092915050565b6000620016d460158362001af9565b91507f436c69656e742061646472657373206e656564656400000000000000000000006000830152602082019050919050565b60006200171660218362001af9565b91507f4163636f756e7420666f7220636c69656e7420616c726561647920657869737460008301527f73000000000000000000000000000000000000000000000000000000000000006020830152604082019050919050565b60006200177e601d8362001af9565b91507f544f5055503a20616d6f756e742065786365656473206365696c696e670000006000830152602082019050919050565b6000620017c060278362001af9565b91507f4352454449543a207472616e7366657220616d6f756e7420657863656564732060008301527f62616c616e6365000000000000000000000000000000000000000000000000006020830152604082019050919050565b600062001828600e8362001af9565b91507f4f6e6c7920666f72206f776e65720000000000000000000000000000000000006000830152602082019050919050565b620018668162001be2565b82525050565b620018778162001bec565b82525050565b6000602082019050620018946000830184620015a0565b92915050565b6000604082019050620018b16000830185620015a0565b620018c06020830184620015a0565b9392505050565b6000604082019050620018de6000830185620015a0565b620018ed60208301846200185b565b9392505050565b60006020820190508181036000830152620019108184620015b1565b905092915050565b60006020820190506200192f600083018462001632565b92915050565b6000602082019050818103600083015262001951818462001684565b905092915050565b600060208201905081810360008301526200197481620016c5565b9050919050565b60006020820190508181036000830152620019968162001707565b9050919050565b60006020820190508181036000830152620019b8816200176f565b9050919050565b60006020820190508181036000830152620019da81620017b1565b9050919050565b60006020820190508181036000830152620019fc8162001819565b9050919050565b600060208201905062001a1a60008301846200185b565b92915050565b600060208201905062001a3760008301846200186c565b92915050565b6000604051905081810181811067ffffffffffffffff8211171562001a675762001a6662001cc3565b5b8060405250919050565b600067ffffffffffffffff82111562001a8f5762001a8e62001cc3565b5b601f19601f8301169050602081019050919050565b6000819050602082019050919050565b600081519050919050565b600081519050919050565b6000602082019050919050565b600082825260208201905092915050565b600082825260208201905092915050565b600082825260208201905092915050565b600062001b178262001be2565b915062001b248362001be2565b9250827fffffffffffffffffffffffffffffffffffffffffffffffffffffffffffffffff0382111562001b5c5762001b5b62001c65565b5b828201905092915050565b600062001b748262001be2565b915062001b818362001be2565b92508282101562001b975762001b9662001c65565b5b828203905092915050565b600062001baf8262001bc2565b9050919050565b60008115159050919050565b600073ffffffffffffffffffffffffffffffffffffffff82169050919050565b6000819050919050565b600060ff82169050919050565b60005b8381101562001c1957808201518184015260208101905062001bfc565b8381111562001c29576000848401525b50505050565b6000600282049050600182168062001c4857607f821691505b6020821081141562001c5f5762001c5e62001c94565b5b50919050565b7f4e487b7100000000000000000000000000000000000000000000000000000000600052601160045260246000fd5b7f4e487b7100000000000000000000000000000000000000000000000000000000600052602260045260246000fd5b7f4e487b7100000000000000000000000000000000000000000000000000000000600052604160045260246000fd5b6000601f19601f8301169050919050565b62001d0e8162001ba2565b811462001d1a57600080fd5b50565b62001d288162001bb6565b811462001d3457600080fd5b50565b62001d428162001be2565b811462001d4e57600080fd5b50565b62001d5c8162001bec565b811462001d6857600080fd5b5056fe60806040523480156200001157600080fd5b50604051620010bb380380620010bb8339818101604052810190620000379190620001ec565b816000806101000a81548173ffffffffffffffffffffffffffffffffffffffff021916908373ffffffffffffffffffffffffffffffffffffffff16021790555060008060009054906101000a900473ffffffffffffffffffffffffffffffffffffffff1690508073ffffffffffffffffffffffffffffffffffffffff16638da5cb5b6040518163ffffffff1660e01b815260040160206040518083038186803b158015620000e457600080fd5b505afa158015620000f9573d6000803e3d6000fd5b505050506040513d601f19601f820116820180604052508101906200011f9190620001c0565b600160006101000a81548173ffffffffffffffffffffffffffffffffffffffff021916908373ffffffffffffffffffffffffffffffffffffffff16021790555081600260006101000a81548173ffffffffffffffffffffffffffffffffffffffff021916908373ffffffffffffffffffffffffffffffffffffffff1602179055505050506200027b565b600081519050620001ba8162000261565b92915050565b600060208284031215620001d357600080fd5b6000620001e384828501620001a9565b91505092915050565b600080604083850312156200020057600080fd5b60006200021085828601620001a9565b92505060206200022385828601620001a9565b9150509250929050565b60006200023a8262000241565b9050919050565b600073ffffffffffffffffffffffffffffffffffffffff82169050919050565b6200026c816200022d565b81146200027857600080fd5b50565b610e30806200028b6000396000f3fe608060405234801561001057600080fd5b50600436106100b45760003560e01c806370a082311161007157806370a08231146101a357806395d89b41146101d3578063a457c2d7146101f1578063a9059cbb14610221578063dd62ed3e14610251578063f7a7161514610281576100b4565b806306fdde03146100b9578063095ea7b3146100d757806318160ddd1461010757806323b872dd14610125578063313ce567146101555780633950935114610173575b600080fd5b6100c161029f565b6040516100ce9190610c01565b60405180910390f35b6100f160048036038101906100ec9190610a35565b610350565b6040516100fe9190610be6565b60405180910390f35b61010f610358565b60405161011c9190610c23565b60405180910390f35b61013f600480360381019061013a91906109e6565b61042f565b60405161014c9190610be6565b60405180910390f35b61015d610438565b60405161016a9190610c3e565b60405180910390f35b61018d60048036038101906101889190610a35565b6104e2565b60405161019a9190610be6565b60405180910390f35b6101bd60048036038101906101b89190610981565b6104ea565b6040516101ca9190610c23565b60405180910390f35b6101db610623565b6040516101e89190610c01565b60405180910390f35b61020b60048036038101906102069190610a35565b6106d4565b6040516102189190610be6565b60405180910390f35b61023b60048036038101906102369190610a35565b6106dc565b6040516102489190610be6565b60405180910390f35b61026b600480360381019061026691906109aa565b610877565b6040516102789190610c23565b60405180910390f35b61028961087f565b6040516102969190610ba2565b60405180910390f35b606060008060009054906101000a900473ffffffffffffffffffffffffffffffffffffffff1690508073ffffffffffffffffffffffffffffffffffffffff1663867011866040518163ffffffff1660e01b815260040160006040518083038186803b15801561030d57600080fd5b505afa158015610321573d6000803e3d6000fd5b505050506040513d6000823e3d601f19601f8201168201806040525081019061034a9190610a9a565b91505090565b600092915050565b60008060008054906101000a900473ffffffffffffffffffffffffffffffffffffffff1690508073ffffffffffffffffffffffffffffffffffffffff166383d4771b600260009054906101000a900473ffffffffffffffffffffffffffffffffffffffff166040518263ffffffff1660e01b81526004016103d99190610ba2565b60206040518083038186803b1580156103f157600080fd5b505afa158015610405573d6000803e3d6000fd5b505050506040513d601f19601f820116820180604052508101906104299190610adb565b91505090565b60009392505050565b60008060008054906101000a900473ffffffffffffffffffffffffffffffffffffffff1690508073ffffffffffffffffffffffffffffffffffffffff16637624388e6040518163ffffffff1660e01b815260040160206040518083038186803b1580156104a457600080fd5b505afa1580156104b8573d6000803e3d6000fd5b505050506040513d601f19601f820116820180604052508101906104dc9190610b04565b91505090565b600092915050565b60008060008054906101000a900473ffffffffffffffffffffffffffffffffffffffff169050600260009054906101000a900473ffffffffffffffffffffffffffffffffffffffff1673ffffffffffffffffffffffffffffffffffffffff168373ffffffffffffffffffffffffffffffffffffffff161461056f57600091505061061e565b8073ffffffffffffffffffffffffffffffffffffffff166370a08231600260009054906101000a900473ffffffffffffffffffffffffffffffffffffffff166040518263ffffffff1660e01b81526004016105ca9190610ba2565b60206040518083038186803b1580156105e257600080fd5b505afa1580156105f6573d6000803e3d6000fd5b505050506040513d601f19601f8201168201806040525081019061061a9190610adb565b9150505b919050565b606060008060009054906101000a900473ffffffffffffffffffffffffffffffffffffffff1690508073ffffffffffffffffffffffffffffffffffffffff1663968c42096040518163ffffffff1660e01b815260040160006040518083038186803b15801561069157600080fd5b505afa1580156106a5573d6000803e3d6000fd5b505050506040513d6000823e3d601f19601f820116820180604052508101906106ce9190610a9a565b91505090565b600092915050565b6000600260009054906101000a900473ffffffffffffffffffffffffffffffffffffffff1673ffffffffffffffffffffffffffffffffffffffff1661071f6108a8565b73ffffffffffffffffffffffffffffffffffffffff161461073f57600080fd5b600160009054906101000a900473ffffffffffffffffffffffffffffffffffffffff1673ffffffffffffffffffffffffffffffffffffffff168373ffffffffffffffffffffffffffffffffffffffff161461079957600080fd5b60008060009054906101000a900473ffffffffffffffffffffffffffffffffffffffff1690508073ffffffffffffffffffffffffffffffffffffffff166385143ce6600260009054906101000a900473ffffffffffffffffffffffffffffffffffffffff16856040518363ffffffff1660e01b815260040161081c929190610bbd565b602060405180830381600087803b15801561083657600080fd5b505af115801561084a573d6000803e3d6000fd5b505050506040513d601f19601f8201168201806040525081019061086e9190610a71565b91505092915050565b600092915050565b60008060009054906101000a900473ffffffffffffffffffffffffffffffffffffffff16905090565b600033905090565b60006108c36108be84610c8a565b610c59565b9050828152602081018484840111156108db57600080fd5b6108e6848285610d2b565b509392505050565b6000813590506108fd81610d9e565b92915050565b60008151905061091281610db5565b92915050565b600082601f83011261092957600080fd5b81516109398482602086016108b0565b91505092915050565b60008135905061095181610dcc565b92915050565b60008151905061096681610dcc565b92915050565b60008151905061097b81610de3565b92915050565b60006020828403121561099357600080fd5b60006109a1848285016108ee565b91505092915050565b600080604083850312156109bd57600080fd5b60006109cb858286016108ee565b92505060206109dc858286016108ee565b9150509250929050565b6000806000606084860312156109fb57600080fd5b6000610a09868287016108ee565b9350506020610a1a868287016108ee565b9250506040610a2b86828701610942565b9150509250925092565b60008060408385031215610a4857600080fd5b6000610a56858286016108ee565b9250506020610a6785828601610942565b9150509250929050565b600060208284031215610a8357600080fd5b6000610a9184828501610903565b91505092915050565b600060208284031215610aac57600080fd5b600082015167ffffffffffffffff811115610ac657600080fd5b610ad284828501610918565b91505092915050565b600060208284031215610aed57600080fd5b6000610afb84828501610957565b91505092915050565b600060208284031215610b1657600080fd5b6000610b248482850161096c565b91505092915050565b610b3681610cd6565b82525050565b610b4581610ce8565b82525050565b6000610b5682610cba565b610b608185610cc5565b9350610b70818560208601610d2b565b610b7981610d8d565b840191505092915050565b610b8d81610d14565b82525050565b610b9c81610d1e565b82525050565b6000602082019050610bb76000830184610b2d565b92915050565b6000604082019050610bd26000830185610b2d565b610bdf6020830184610b84565b9392505050565b6000602082019050610bfb6000830184610b3c565b92915050565b60006020820190508181036000830152610c1b8184610b4b565b905092915050565b6000602082019050610c386000830184610b84565b92915050565b6000602082019050610c536000830184610b93565b92915050565b6000604051905081810181811067ffffffffffffffff82111715610c8057610c7f610d5e565b5b8060405250919050565b600067ffffffffffffffff821115610ca557610ca4610d5e565b5b601f19601f8301169050602081019050919050565b600081519050919050565b600082825260208201905092915050565b6000610ce182610cf4565b9050919050565b60008115159050919050565b600073ffffffffffffffffffffffffffffffffffffffff82169050919050565b6000819050919050565b600060ff82169050919050565b60005b83811015610d49578082015181840152602081019050610d2e565b83811115610d58576000848401525b50505050565b7f4e487b7100000000000000000000000000000000000000000000000000000000600052604160045260246000fd5b6000601f19601f8301169050919050565b610da781610cd6565b8114610db257600080fd5b50565b610dbe81610ce8565b8114610dc957600080fd5b50565b610dd581610d14565b8114610de057600080fd5b50565b610dec81610d1e565b8114610df757600080fd5b5056fea26469706673582212202641026d1e1356ed21b1c3d1d78da0bb9439c8291e56f0858743b6fddf9a4a0564736f6c63430008000033a2646970667358221220ce3bb14f017708f82210d58011cddbfdddc73947ca2cb1e3a640539dc389f53464736f6c63430008000033",
  "immutableReferences": {},
  "source": "// SPDX-License-Identifier: GPL-3.0\n\npragma solidity >=0.7.0 <0.9.0;\n\nimport \"./erc20/extensions/IERC20Metadata.sol\";\nimport \"./erc20/IERC20.sol\";\n\nimport \"./ERC20Credit.sol\";\n\n/**\n * @title CreditBook\n * @dev Manager merchant's credit book\n */\ncontract CreditBook {\n\n    address private _owner;\n\n    address private _currency_token;\n\n    string private _title;\n\n    string [] private _accounts;\n    mapping(address => address) private _erc20credits;\n\n    mapping(address => uint) private _creditlimits;\n    mapping(address => uint) private _balances;\n\n    constructor(address owneraddr, address currencyaddr, string memory booktitle) {\n        _owner = owneraddr;\n        _currency_token = currencyaddr;\n        _title = booktitle;\n    }\n\n    // views\n    function owner() public view returns (address) {\n        return _owner;\n    }\n\n    function currencyToken() public view returns (address) {\n        return _currency_token;\n    }\n\n     function title() public view returns (string memory) {\n        return _title;\n    }\n\n   function currencyName() public view virtual returns (string memory) {\n        IERC20Metadata tok = IERC20Metadata(_currency_token);\n        return tok.name();\n    }\n\n    function currencySymbol() public view virtual returns (string memory) {\n        IERC20Metadata tok = IERC20Metadata(_currency_token);\n        return tok.symbol();\n    }\n\n    function currencyDecimals() public view virtual returns (uint8) {\n        IERC20Metadata tok = IERC20Metadata(_currency_token);\n        return tok.decimals();\n    }\n\n    // client\n    function creditlimitOf(address client) public view virtual returns (uint256) {\n        return _creditlimits[client];\n    }\n\n    function balanceOf(address client) public view virtual returns (uint256) {\n        return _balances[client];\n    }\n\n   function creditToken(address client) public view virtual returns (address) {\n        address _credittokenaddr = _erc20credits[client];\n\n        if (_credittokenaddr == address(0))\n            return address(0);\n\n        ERC20Credit _credittoken = ERC20Credit(_credittokenaddr);\n\n        return address(_credittoken);\n   }  \n   \n    // transactions\n    function setTitle(string calldata newtitle) public virtual returns (string memory) {\n        require(msg.sender == _owner, \"Only for owner\");\n\n        string memory _old_title = _title;\n\n        _title = newtitle;\n\n        return _old_title;\n    }\n\n    // accounts\n    function accounts() public view returns( string  [] memory){\n        return _accounts;\n    }\n\n    function createAccount(string calldata accountdata, address client) public virtual returns (bool) {\n        require(client != address(0), \"Client address needed\");\n        require(_erc20credits[client] == address(0), \"Account for client already exists\");\n\n        _accounts.push(accountdata);\n        ERC20Credit _credittoken = new ERC20Credit(address(this), client);\n\n        _erc20credits[client] = address(_credittoken);\n \n        return true;\n   }\n\n   function updateCreditLimit(address client, uint256 limit) public virtual returns (uint256) {\n        uint _old_limit = _creditlimits[client];\n        uint _old_balance = _balances[client];\n\n        _creditlimits[client] = limit;\n\n        if (limit > _old_limit) {\n            _balances[client] = _old_balance + limit - _old_limit;\n        }\n        else {\n            if (_old_balance > _old_limit - limit)\n            _balances[client] = _old_balance - _old_limit + limit;\n            else\n            _balances[client] = 0;\n        }\n \n        return _creditlimits[client];\n   }\n\n   function payWithCredits(address client, uint256 amount) public virtual returns (bool) {\n        uint _old_balance = _balances[client];\n\n        require(_old_balance >= amount, \"CREDIT: transfer amount exceeds balance\");\n\n        if (amount <= _old_balance) {\n            _balances[client] = _old_balance - amount;\n        }\n\n        return true;\n    }\n\n\n   function topupCredits(uint256 amount) public virtual returns (bool) {\n        address _client = msg.sender;\n        uint _current_limit = _creditlimits[_client];\n        uint _current_balance = _balances[_client];\n\n        require( (_current_limit - _current_balance) >= amount, \"TOPUP: amount exceeds ceiling\");\n\n        IERC20 tok = IERC20(_currency_token);\n\n        bool _done = tok.transfer(_owner, amount);\n\n        if (_done) {\n            _balances[_client] = _current_balance + amount;\n        }\n\n        return true;\n    }\n}",
  "sourcePath": "/home/frederic/development/p2pmoney-dev/var/lib/git/repos/javascript/primusmoney_mytokens_webapp/react_apps/my-pwa-apps/my-creditbook/contracts/CreditBook.sol",
  "compiler": {
    "name": "solc",
    "version": "0.8.0+commit.c7dfd78e.Emscripten.clang"
  },
  "schemaVersion": "3.3.4",
  "updatedAt": "2022-08-27T14:27:55.648Z",
  "devdoc": {
    "details": "Manager merchant's credit book",
    "kind": "dev",
    "methods": {},
    "title": "CreditBook",
    "version": 1
  },
  "userdoc": {
    "kind": "user",
    "methods": {},
    "version": 1
  }
}