{
  "contractName": "CreditBook",
  "abi": [
    {
      "inputs": [
        {
          "internalType": "address",
          "name": "owneraddr",
          "type": "address"
        },
        {
          "internalType": "address",
          "name": "currencyaddr",
          "type": "address"
        },
        {
          "internalType": "string",
          "name": "booktitle",
          "type": "string"
        }
      ],
      "stateMutability": "nonpayable",
      "type": "constructor"
    },
    {
      "inputs": [],
      "name": "owner",
      "outputs": [
        {
          "internalType": "address",
          "name": "",
          "type": "address"
        }
      ],
      "stateMutability": "view",
      "type": "function"
    },
    {
      "inputs": [],
      "name": "currencyToken",
      "outputs": [
        {
          "internalType": "address",
          "name": "",
          "type": "address"
        }
      ],
      "stateMutability": "view",
      "type": "function"
    },
    {
      "inputs": [],
      "name": "title",
      "outputs": [
        {
          "internalType": "string",
          "name": "",
          "type": "string"
        }
      ],
      "stateMutability": "view",
      "type": "function"
    },
    {
      "inputs": [],
      "name": "currencyName",
      "outputs": [
        {
          "internalType": "string",
          "name": "",
          "type": "string"
        }
      ],
      "stateMutability": "view",
      "type": "function"
    },
    {
      "inputs": [],
      "name": "currencySymbol",
      "outputs": [
        {
          "internalType": "string",
          "name": "",
          "type": "string"
        }
      ],
      "stateMutability": "view",
      "type": "function"
    },
    {
      "inputs": [],
      "name": "currencyDecimals",
      "outputs": [
        {
          "internalType": "uint8",
          "name": "",
          "type": "uint8"
        }
      ],
      "stateMutability": "view",
      "type": "function"
    },
    {
      "inputs": [
        {
          "internalType": "address",
          "name": "client",
          "type": "address"
        }
      ],
      "name": "creditlimitOf",
      "outputs": [
        {
          "internalType": "uint256",
          "name": "",
          "type": "uint256"
        }
      ],
      "stateMutability": "view",
      "type": "function"
    },
    {
      "inputs": [
        {
          "internalType": "address",
          "name": "client",
          "type": "address"
        }
      ],
      "name": "balanceOf",
      "outputs": [
        {
          "internalType": "uint256",
          "name": "",
          "type": "uint256"
        }
      ],
      "stateMutability": "view",
      "type": "function"
    },
    {
      "inputs": [
        {
          "internalType": "address",
          "name": "client",
          "type": "address"
        }
      ],
      "name": "creditToken",
      "outputs": [
        {
          "internalType": "address",
          "name": "",
          "type": "address"
        }
      ],
      "stateMutability": "view",
      "type": "function"
    },
    {
      "inputs": [
        {
          "internalType": "string",
          "name": "newtitle",
          "type": "string"
        }
      ],
      "name": "setTitle",
      "outputs": [
        {
          "internalType": "string",
          "name": "",
          "type": "string"
        }
      ],
      "stateMutability": "nonpayable",
      "type": "function"
    },
    {
      "inputs": [
        {
          "internalType": "address",
          "name": "client",
          "type": "address"
        }
      ],
      "name": "createAccount",
      "outputs": [
        {
          "internalType": "bool",
          "name": "",
          "type": "bool"
        }
      ],
      "stateMutability": "nonpayable",
      "type": "function"
    },
    {
      "inputs": [
        {
          "internalType": "address",
          "name": "client",
          "type": "address"
        },
        {
          "internalType": "uint256",
          "name": "limit",
          "type": "uint256"
        }
      ],
      "name": "updateCreditLimit",
      "outputs": [
        {
          "internalType": "uint256",
          "name": "",
          "type": "uint256"
        }
      ],
      "stateMutability": "nonpayable",
      "type": "function"
    },
    {
      "inputs": [
        {
          "internalType": "address",
          "name": "client",
          "type": "address"
        },
        {
          "internalType": "uint256",
          "name": "amount",
          "type": "uint256"
        }
      ],
      "name": "payWithCredits",
      "outputs": [
        {
          "internalType": "bool",
          "name": "",
          "type": "bool"
        }
      ],
      "stateMutability": "nonpayable",
      "type": "function"
    },
    {
      "inputs": [
        {
          "internalType": "uint256",
          "name": "amount",
          "type": "uint256"
        }
      ],
      "name": "topupCredits",
      "outputs": [
        {
          "internalType": "bool",
          "name": "",
          "type": "bool"
        }
      ],
      "stateMutability": "nonpayable",
      "type": "function"
    }
  ],
  "bytecode": "0x60806040523480156200001157600080fd5b5060405162002cdf38038062002cdf833981810160405281019062000037919062000213565b826000806101000a81548173ffffffffffffffffffffffffffffffffffffffff021916908373ffffffffffffffffffffffffffffffffffffffff16021790555081600160006101000a81548173ffffffffffffffffffffffffffffffffffffffff021916908373ffffffffffffffffffffffffffffffffffffffff1602179055508060029080519060200190620000d0929190620000da565b5050505062000401565b828054620000e89062000353565b90600052602060002090601f0160209004810192826200010c576000855562000158565b82601f106200012757805160ff191683800117855562000158565b8280016001018555821562000158579182015b82811115620001575782518255916020019190600101906200013a565b5b5090506200016791906200016b565b5090565b5b80821115620001865760008160009055506001016200016c565b5090565b6000620001a16200019b84620002b6565b62000282565b905082815260208101848484011115620001ba57600080fd5b620001c78482856200031d565b509392505050565b600081519050620001e081620003e7565b92915050565b600082601f830112620001f857600080fd5b81516200020a8482602086016200018a565b91505092915050565b6000806000606084860312156200022957600080fd5b60006200023986828701620001cf565b93505060206200024c86828701620001cf565b925050604084015167ffffffffffffffff8111156200026a57600080fd5b6200027886828701620001e6565b9150509250925092565b6000604051905081810181811067ffffffffffffffff82111715620002ac57620002ab620003b8565b5b8060405250919050565b600067ffffffffffffffff821115620002d457620002d3620003b8565b5b601f19601f8301169050602081019050919050565b6000620002f682620002fd565b9050919050565b600073ffffffffffffffffffffffffffffffffffffffff82169050919050565b60005b838110156200033d57808201518184015260208101905062000320565b838111156200034d576000848401525b50505050565b600060028204905060018216806200036c57607f821691505b6020821081141562000383576200038262000389565b5b50919050565b7f4e487b7100000000000000000000000000000000000000000000000000000000600052602260045260246000fd5b7f4e487b7100000000000000000000000000000000000000000000000000000000600052604160045260246000fd5b620003f281620002e9565b8114620003fe57600080fd5b50565b6128ce80620004116000396000f3fe60806040523480156200001157600080fd5b5060043610620001005760003560e01c80638670118611620000995780639859387b116200006f5780639859387b14620002a9578063a901642014620002df578063b8a15f0d1462000315578063c6223c89146200034b5762000100565b80638670118614620002435780638da5cb5b1462000265578063968c420914620002875762000100565b806372910be011620000db57806372910be0146200017f5780637624388e14620001b557806383d4771b14620001d757806385143ce6146200020d5762000100565b80634a79d50c14620001055780636b2fa374146200012757806370a082311462000149575b600080fd5b6200010f62000381565b6040516200011e919062001457565b60405180910390f35b620001316200041b565b604051620001409190620013c3565b60405180910390f35b62000167600480360381019062000161919062001115565b62000445565b604051620001769190620014bf565b60405180910390f35b6200019d6004803603810190620001979190620011ae565b6200048e565b604051620001ac919062001457565b60405180910390f35b620001bf6200059e565b604051620001ce9190620014dc565b60405180910390f35b620001f56004803603810190620001ef919062001115565b6200064e565b604051620002049190620014bf565b60405180910390f35b6200022b600480360381019062000225919062001141565b62000697565b6040516200023a91906200143a565b60405180910390f35b6200024d62000787565b6040516200025c919062001457565b60405180910390f35b6200026f6200083d565b6040516200027e9190620013c3565b60405180910390f35b6200029162000866565b604051620002a0919062001457565b60405180910390f35b620002c76004803603810190620002c1919062001115565b6200091c565b604051620002d691906200143a565b60405180910390f35b620002fd6004803603810190620002f7919062001115565b62000a7d565b6040516200030c9190620013c3565b60405180910390f35b6200033360048036038101906200032d91906200123c565b62000b33565b6040516200034291906200143a565b60405180910390f35b62000369600480360381019062000363919062001141565b62000d59565b604051620003789190620014bf565b60405180910390f35b6060600280546200039290620016a1565b80601f0160208091040260200160405190810160405280929190818152602001828054620003c090620016a1565b8015620004115780601f10620003e55761010080835404028352916020019162000411565b820191906000526020600020905b815481529060010190602001808311620003f357829003601f168201915b5050505050905090565b6000600160009054906101000a900473ffffffffffffffffffffffffffffffffffffffff16905090565b6000600560008373ffffffffffffffffffffffffffffffffffffffff1673ffffffffffffffffffffffffffffffffffffffff168152602001908152602001600020549050919050565b606060008054906101000a900473ffffffffffffffffffffffffffffffffffffffff1673ffffffffffffffffffffffffffffffffffffffff163373ffffffffffffffffffffffffffffffffffffffff1614620004e957600080fd5b600060028054620004fa90620016a1565b80601f01602080910402602001604051908101604052809291908181526020018280546200052890620016a1565b8015620005795780601f106200054d5761010080835404028352916020019162000579565b820191906000526020600020905b8154815290600101906020018083116200055b57829003601f168201915b505050505090508383600291906200059392919062000f3c565b508091505092915050565b600080600160009054906101000a900473ffffffffffffffffffffffffffffffffffffffff1690508073ffffffffffffffffffffffffffffffffffffffff1663313ce5676040518163ffffffff1660e01b815260040160206040518083038186803b1580156200060d57600080fd5b505afa15801562000622573d6000803e3d6000fd5b505050506040513d601f19601f8201168201806040525081019062000648919062001268565b91505090565b6000600460008373ffffffffffffffffffffffffffffffffffffffff1673ffffffffffffffffffffffffffffffffffffffff168152602001908152602001600020549050919050565b600080600560008573ffffffffffffffffffffffffffffffffffffffff1673ffffffffffffffffffffffffffffffffffffffff1681526020019081526020016000205490508281101562000722576040517f08c379a000000000000000000000000000000000000000000000000000000000815260040162000719906200149d565b60405180910390fd5b8083116200077c578281620007389190620015d9565b600560008673ffffffffffffffffffffffffffffffffffffffff1673ffffffffffffffffffffffffffffffffffffffff168152602001908152602001600020819055505b600191505092915050565b60606000600160009054906101000a900473ffffffffffffffffffffffffffffffffffffffff1690508073ffffffffffffffffffffffffffffffffffffffff166306fdde036040518163ffffffff1660e01b815260040160006040518083038186803b158015620007f757600080fd5b505afa1580156200080c573d6000803e3d6000fd5b505050506040513d6000823e3d601f19601f82011682018060405250810190620008379190620011f7565b91505090565b60008060009054906101000a900473ffffffffffffffffffffffffffffffffffffffff16905090565b60606000600160009054906101000a900473ffffffffffffffffffffffffffffffffffffffff1690508073ffffffffffffffffffffffffffffffffffffffff166395d89b416040518163ffffffff1660e01b815260040160006040518083038186803b158015620008d657600080fd5b505afa158015620008eb573d6000803e3d6000fd5b505050506040513d6000823e3d601f19601f82011682018060405250810190620009169190620011f7565b91505090565b60008073ffffffffffffffffffffffffffffffffffffffff16600360008473ffffffffffffffffffffffffffffffffffffffff1673ffffffffffffffffffffffffffffffffffffffff16815260200190815260200160002060009054906101000a900473ffffffffffffffffffffffffffffffffffffffff1673ffffffffffffffffffffffffffffffffffffffff1614620009b657600080fd5b60003083604051620009c89062000fcd565b620009d5929190620013e0565b604051809103906000f080158015620009f2573d6000803e3d6000fd5b50905080600360008573ffffffffffffffffffffffffffffffffffffffff1673ffffffffffffffffffffffffffffffffffffffff16815260200190815260200160002060006101000a81548173ffffffffffffffffffffffffffffffffffffffff021916908373ffffffffffffffffffffffffffffffffffffffff1602179055506001915050919050565b600080600360008473ffffffffffffffffffffffffffffffffffffffff1673ffffffffffffffffffffffffffffffffffffffff16815260200190815260200160002060009054906101000a900473ffffffffffffffffffffffffffffffffffffffff169050600073ffffffffffffffffffffffffffffffffffffffff168173ffffffffffffffffffffffffffffffffffffffff16141562000b2357600091505062000b2e565b600081905080925050505b919050565b6000803390506000600460008373ffffffffffffffffffffffffffffffffffffffff1673ffffffffffffffffffffffffffffffffffffffff1681526020019081526020016000205490506000600560008473ffffffffffffffffffffffffffffffffffffffff1673ffffffffffffffffffffffffffffffffffffffff16815260200190815260200160002054905084818362000bd09190620015d9565b111562000c14576040517f08c379a000000000000000000000000000000000000000000000000000000000815260040162000c0b906200147b565b60405180910390fd5b6000600160009054906101000a900473ffffffffffffffffffffffffffffffffffffffff16905060008173ffffffffffffffffffffffffffffffffffffffff1663a9059cbb60008054906101000a900473ffffffffffffffffffffffffffffffffffffffff16896040518363ffffffff1660e01b815260040162000c9a9291906200140d565b602060405180830381600087803b15801562000cb557600080fd5b505af115801562000cca573d6000803e3d6000fd5b505050506040513d601f19601f8201168201806040525081019062000cf0919062001182565b9050801562000d4b57868362000d0791906200157c565b600560008773ffffffffffffffffffffffffffffffffffffffff1673ffffffffffffffffffffffffffffffffffffffff168152602001908152602001600020819055505b600195505050505050919050565b600080600460008573ffffffffffffffffffffffffffffffffffffffff1673ffffffffffffffffffffffffffffffffffffffff1681526020019081526020016000205490506000600560008673ffffffffffffffffffffffffffffffffffffffff1673ffffffffffffffffffffffffffffffffffffffff16815260200190815260200160002054905083600460008773ffffffffffffffffffffffffffffffffffffffff1673ffffffffffffffffffffffffffffffffffffffff168152602001908152602001600020819055508184111562000e935781848262000e3e91906200157c565b62000e4a9190620015d9565b600560008773ffffffffffffffffffffffffffffffffffffffff1673ffffffffffffffffffffffffffffffffffffffff1681526020019081526020016000208190555062000ef2565b83828262000ea291906200157c565b62000eae9190620015d9565b600560008773ffffffffffffffffffffffffffffffffffffffff1673ffffffffffffffffffffffffffffffffffffffff168152602001908152602001600020819055505b600460008673ffffffffffffffffffffffffffffffffffffffff1673ffffffffffffffffffffffffffffffffffffffff168152602001908152602001600020549250505092915050565b82805462000f4a90620016a1565b90600052602060002090601f01602090048101928262000f6e576000855562000fba565b82601f1062000f8957803560ff191683800117855562000fba565b8280016001018555821562000fba579182015b8281111562000fb957823582559160200191906001019062000f9c565b5b50905062000fc9919062000fdb565b5090565b6110bb80620017de83390190565b5b8082111562000ff657600081600090555060010162000fdc565b5090565b6000620010116200100b846200152d565b620014f9565b9050828152602081018484840111156200102a57600080fd5b620010378482856200166b565b509392505050565b600081359050620010508162001775565b92915050565b60008151905062001067816200178f565b92915050565b60008083601f8401126200108057600080fd5b8235905067ffffffffffffffff8111156200109a57600080fd5b602083019150836001820283011115620010b357600080fd5b9250929050565b600082601f830112620010cc57600080fd5b8151620010de84826020860162000ffa565b91505092915050565b600081359050620010f881620017a9565b92915050565b6000815190506200110f81620017c3565b92915050565b6000602082840312156200112857600080fd5b600062001138848285016200103f565b91505092915050565b600080604083850312156200115557600080fd5b600062001165858286016200103f565b92505060206200117885828601620010e7565b9150509250929050565b6000602082840312156200119557600080fd5b6000620011a58482850162001056565b91505092915050565b60008060208385031215620011c257600080fd5b600083013567ffffffffffffffff811115620011dd57600080fd5b620011eb858286016200106d565b92509250509250929050565b6000602082840312156200120a57600080fd5b600082015167ffffffffffffffff8111156200122557600080fd5b6200123384828501620010ba565b91505092915050565b6000602082840312156200124f57600080fd5b60006200125f84828501620010e7565b91505092915050565b6000602082840312156200127b57600080fd5b60006200128b84828501620010fe565b91505092915050565b6200129f8162001614565b82525050565b620012b08162001628565b82525050565b6000620012c38262001560565b620012cf81856200156b565b9350620012e18185602086016200166b565b620012ec8162001764565b840191505092915050565b600062001306601d836200156b565b91507f544f5055503a20616d6f756e742065786365656473206365696c696e670000006000830152602082019050919050565b6000620013486027836200156b565b91507f4352454449543a207472616e7366657220616d6f756e7420657863656564732060008301527f62616c616e6365000000000000000000000000000000000000000000000000006020830152604082019050919050565b620013ac8162001654565b82525050565b620013bd816200165e565b82525050565b6000602082019050620013da600083018462001294565b92915050565b6000604082019050620013f7600083018562001294565b62001406602083018462001294565b9392505050565b600060408201905062001424600083018562001294565b620014336020830184620013a1565b9392505050565b6000602082019050620014516000830184620012a5565b92915050565b60006020820190508181036000830152620014738184620012b6565b905092915050565b600060208201905081810360008301526200149681620012f7565b9050919050565b60006020820190508181036000830152620014b88162001339565b9050919050565b6000602082019050620014d66000830184620013a1565b92915050565b6000602082019050620014f36000830184620013b2565b92915050565b6000604051905081810181811067ffffffffffffffff8211171562001523576200152262001735565b5b8060405250919050565b600067ffffffffffffffff8211156200154b576200154a62001735565b5b601f19601f8301169050602081019050919050565b600081519050919050565b600082825260208201905092915050565b6000620015898262001654565b9150620015968362001654565b9250827fffffffffffffffffffffffffffffffffffffffffffffffffffffffffffffffff03821115620015ce57620015cd620016d7565b5b828201905092915050565b6000620015e68262001654565b9150620015f38362001654565b925082821015620016095762001608620016d7565b5b828203905092915050565b6000620016218262001634565b9050919050565b60008115159050919050565b600073ffffffffffffffffffffffffffffffffffffffff82169050919050565b6000819050919050565b600060ff82169050919050565b60005b838110156200168b5780820151818401526020810190506200166e565b838111156200169b576000848401525b50505050565b60006002820490506001821680620016ba57607f821691505b60208210811415620016d157620016d062001706565b5b50919050565b7f4e487b7100000000000000000000000000000000000000000000000000000000600052601160045260246000fd5b7f4e487b7100000000000000000000000000000000000000000000000000000000600052602260045260246000fd5b7f4e487b7100000000000000000000000000000000000000000000000000000000600052604160045260246000fd5b6000601f19601f8301169050919050565b620017808162001614565b81146200178c57600080fd5b50565b6200179a8162001628565b8114620017a657600080fd5b50565b620017b48162001654565b8114620017c057600080fd5b50565b620017ce816200165e565b8114620017da57600080fd5b5056fe60806040523480156200001157600080fd5b50604051620010bb380380620010bb8339818101604052810190620000379190620001ec565b816000806101000a81548173ffffffffffffffffffffffffffffffffffffffff021916908373ffffffffffffffffffffffffffffffffffffffff16021790555060008060009054906101000a900473ffffffffffffffffffffffffffffffffffffffff1690508073ffffffffffffffffffffffffffffffffffffffff16638da5cb5b6040518163ffffffff1660e01b815260040160206040518083038186803b158015620000e457600080fd5b505afa158015620000f9573d6000803e3d6000fd5b505050506040513d601f19601f820116820180604052508101906200011f9190620001c0565b600160006101000a81548173ffffffffffffffffffffffffffffffffffffffff021916908373ffffffffffffffffffffffffffffffffffffffff16021790555081600260006101000a81548173ffffffffffffffffffffffffffffffffffffffff021916908373ffffffffffffffffffffffffffffffffffffffff1602179055505050506200027b565b600081519050620001ba8162000261565b92915050565b600060208284031215620001d357600080fd5b6000620001e384828501620001a9565b91505092915050565b600080604083850312156200020057600080fd5b60006200021085828601620001a9565b92505060206200022385828601620001a9565b9150509250929050565b60006200023a8262000241565b9050919050565b600073ffffffffffffffffffffffffffffffffffffffff82169050919050565b6200026c816200022d565b81146200027857600080fd5b50565b610e30806200028b6000396000f3fe608060405234801561001057600080fd5b50600436106100b45760003560e01c806370a082311161007157806370a08231146101a357806395d89b41146101d3578063a457c2d7146101f1578063a9059cbb14610221578063dd62ed3e14610251578063f7a7161514610281576100b4565b806306fdde03146100b9578063095ea7b3146100d757806318160ddd1461010757806323b872dd14610125578063313ce567146101555780633950935114610173575b600080fd5b6100c161029f565b6040516100ce9190610c01565b60405180910390f35b6100f160048036038101906100ec9190610a35565b610350565b6040516100fe9190610be6565b60405180910390f35b61010f610358565b60405161011c9190610c23565b60405180910390f35b61013f600480360381019061013a91906109e6565b61042f565b60405161014c9190610be6565b60405180910390f35b61015d610438565b60405161016a9190610c3e565b60405180910390f35b61018d60048036038101906101889190610a35565b6104e2565b60405161019a9190610be6565b60405180910390f35b6101bd60048036038101906101b89190610981565b6104ea565b6040516101ca9190610c23565b60405180910390f35b6101db610623565b6040516101e89190610c01565b60405180910390f35b61020b60048036038101906102069190610a35565b6106d4565b6040516102189190610be6565b60405180910390f35b61023b60048036038101906102369190610a35565b6106dc565b6040516102489190610be6565b60405180910390f35b61026b600480360381019061026691906109aa565b610877565b6040516102789190610c23565b60405180910390f35b61028961087f565b6040516102969190610ba2565b60405180910390f35b606060008060009054906101000a900473ffffffffffffffffffffffffffffffffffffffff1690508073ffffffffffffffffffffffffffffffffffffffff1663867011866040518163ffffffff1660e01b815260040160006040518083038186803b15801561030d57600080fd5b505afa158015610321573d6000803e3d6000fd5b505050506040513d6000823e3d601f19601f8201168201806040525081019061034a9190610a9a565b91505090565b600092915050565b60008060008054906101000a900473ffffffffffffffffffffffffffffffffffffffff1690508073ffffffffffffffffffffffffffffffffffffffff166383d4771b600260009054906101000a900473ffffffffffffffffffffffffffffffffffffffff166040518263ffffffff1660e01b81526004016103d99190610ba2565b60206040518083038186803b1580156103f157600080fd5b505afa158015610405573d6000803e3d6000fd5b505050506040513d601f19601f820116820180604052508101906104299190610adb565b91505090565b60009392505050565b60008060008054906101000a900473ffffffffffffffffffffffffffffffffffffffff1690508073ffffffffffffffffffffffffffffffffffffffff16637624388e6040518163ffffffff1660e01b815260040160206040518083038186803b1580156104a457600080fd5b505afa1580156104b8573d6000803e3d6000fd5b505050506040513d601f19601f820116820180604052508101906104dc9190610b04565b91505090565b600092915050565b60008060008054906101000a900473ffffffffffffffffffffffffffffffffffffffff169050600260009054906101000a900473ffffffffffffffffffffffffffffffffffffffff1673ffffffffffffffffffffffffffffffffffffffff168373ffffffffffffffffffffffffffffffffffffffff161461056f57600091505061061e565b8073ffffffffffffffffffffffffffffffffffffffff166370a08231600260009054906101000a900473ffffffffffffffffffffffffffffffffffffffff166040518263ffffffff1660e01b81526004016105ca9190610ba2565b60206040518083038186803b1580156105e257600080fd5b505afa1580156105f6573d6000803e3d6000fd5b505050506040513d601f19601f8201168201806040525081019061061a9190610adb565b9150505b919050565b606060008060009054906101000a900473ffffffffffffffffffffffffffffffffffffffff1690508073ffffffffffffffffffffffffffffffffffffffff1663968c42096040518163ffffffff1660e01b815260040160006040518083038186803b15801561069157600080fd5b505afa1580156106a5573d6000803e3d6000fd5b505050506040513d6000823e3d601f19601f820116820180604052508101906106ce9190610a9a565b91505090565b600092915050565b6000600260009054906101000a900473ffffffffffffffffffffffffffffffffffffffff1673ffffffffffffffffffffffffffffffffffffffff1661071f6108a8565b73ffffffffffffffffffffffffffffffffffffffff161461073f57600080fd5b600160009054906101000a900473ffffffffffffffffffffffffffffffffffffffff1673ffffffffffffffffffffffffffffffffffffffff168373ffffffffffffffffffffffffffffffffffffffff161461079957600080fd5b60008060009054906101000a900473ffffffffffffffffffffffffffffffffffffffff1690508073ffffffffffffffffffffffffffffffffffffffff166385143ce6600260009054906101000a900473ffffffffffffffffffffffffffffffffffffffff16856040518363ffffffff1660e01b815260040161081c929190610bbd565b602060405180830381600087803b15801561083657600080fd5b505af115801561084a573d6000803e3d6000fd5b505050506040513d601f19601f8201168201806040525081019061086e9190610a71565b91505092915050565b600092915050565b60008060009054906101000a900473ffffffffffffffffffffffffffffffffffffffff16905090565b600033905090565b60006108c36108be84610c8a565b610c59565b9050828152602081018484840111156108db57600080fd5b6108e6848285610d2b565b509392505050565b6000813590506108fd81610d9e565b92915050565b60008151905061091281610db5565b92915050565b600082601f83011261092957600080fd5b81516109398482602086016108b0565b91505092915050565b60008135905061095181610dcc565b92915050565b60008151905061096681610dcc565b92915050565b60008151905061097b81610de3565b92915050565b60006020828403121561099357600080fd5b60006109a1848285016108ee565b91505092915050565b600080604083850312156109bd57600080fd5b60006109cb858286016108ee565b92505060206109dc858286016108ee565b9150509250929050565b6000806000606084860312156109fb57600080fd5b6000610a09868287016108ee565b9350506020610a1a868287016108ee565b9250506040610a2b86828701610942565b9150509250925092565b60008060408385031215610a4857600080fd5b6000610a56858286016108ee565b9250506020610a6785828601610942565b9150509250929050565b600060208284031215610a8357600080fd5b6000610a9184828501610903565b91505092915050565b600060208284031215610aac57600080fd5b600082015167ffffffffffffffff811115610ac657600080fd5b610ad284828501610918565b91505092915050565b600060208284031215610aed57600080fd5b6000610afb84828501610957565b91505092915050565b600060208284031215610b1657600080fd5b6000610b248482850161096c565b91505092915050565b610b3681610cd6565b82525050565b610b4581610ce8565b82525050565b6000610b5682610cba565b610b608185610cc5565b9350610b70818560208601610d2b565b610b7981610d8d565b840191505092915050565b610b8d81610d14565b82525050565b610b9c81610d1e565b82525050565b6000602082019050610bb76000830184610b2d565b92915050565b6000604082019050610bd26000830185610b2d565b610bdf6020830184610b84565b9392505050565b6000602082019050610bfb6000830184610b3c565b92915050565b60006020820190508181036000830152610c1b8184610b4b565b905092915050565b6000602082019050610c386000830184610b84565b92915050565b6000602082019050610c536000830184610b93565b92915050565b6000604051905081810181811067ffffffffffffffff82111715610c8057610c7f610d5e565b5b8060405250919050565b600067ffffffffffffffff821115610ca557610ca4610d5e565b5b601f19601f8301169050602081019050919050565b600081519050919050565b600082825260208201905092915050565b6000610ce182610cf4565b9050919050565b60008115159050919050565b600073ffffffffffffffffffffffffffffffffffffffff82169050919050565b6000819050919050565b600060ff82169050919050565b60005b83811015610d49578082015181840152602081019050610d2e565b83811115610d58576000848401525b50505050565b7f4e487b7100000000000000000000000000000000000000000000000000000000600052604160045260246000fd5b6000601f19601f8301169050919050565b610da781610cd6565b8114610db257600080fd5b50565b610dbe81610ce8565b8114610dc957600080fd5b50565b610dd581610d14565b8114610de057600080fd5b50565b610dec81610d1e565b8114610df757600080fd5b5056fea2646970667358221220163ae93fa58b6722b69cae890b8a7e425273bb6d2d760fe327ad843d176f395b64736f6c63430008000033a26469706673582212203f2127c83b82483d93674328f1dfaf29437f35c8fc99c3f3ebede0e035dc824564736f6c63430008000033",
  "immutableReferences": {},
  "source": "// SPDX-License-Identifier: GPL-3.0\n\npragma solidity >=0.7.0 <0.9.0;\n\nimport \"./erc20/extensions/IERC20Metadata.sol\";\nimport \"./erc20/IERC20.sol\";\n\nimport \"./ERC20Credit.sol\";\n\n/**\n * @title CreditBook\n * @dev Manager merchant's credit book\n */\ncontract CreditBook {\n\n    address private _owner;\n\n    address private _currency_token;\n\n    string private _title;\n\n    mapping(address => address) private _accounts;\n\n    mapping(address => uint) private _creditlimits;\n    mapping(address => uint) private _balances;\n\n    constructor(address owneraddr, address currencyaddr, string memory booktitle) {\n        _owner = owneraddr;\n        _currency_token = currencyaddr;\n        _title = booktitle;\n    }\n\n    // views\n    function owner() public view returns (address) {\n        return _owner;\n    }\n\n    function currencyToken() public view returns (address) {\n        return _currency_token;\n    }\n\n     function title() public view returns (string memory) {\n        return _title;\n    }\n\n   function currencyName() public view virtual returns (string memory) {\n        IERC20Metadata tok = IERC20Metadata(_currency_token);\n        return tok.name();\n    }\n\n    function currencySymbol() public view virtual returns (string memory) {\n        IERC20Metadata tok = IERC20Metadata(_currency_token);\n        return tok.symbol();\n    }\n\n    function currencyDecimals() public view virtual returns (uint8) {\n        IERC20Metadata tok = IERC20Metadata(_currency_token);\n        return tok.decimals();\n    }\n\n    // client\n    function creditlimitOf(address client) public view virtual returns (uint256) {\n        return _creditlimits[client];\n    }\n\n    function balanceOf(address client) public view virtual returns (uint256) {\n        return _balances[client];\n    }\n\n   function creditToken(address client) public view virtual returns (address) {\n        address _credittokenaddr = _accounts[client];\n\n        if (_credittokenaddr == address(0))\n            return address(0);\n\n        ERC20Credit _credittoken = ERC20Credit(_credittokenaddr);\n\n        return address(_credittoken);\n   }  \n   \n    // transactions\n    function setTitle(string calldata newtitle) public virtual returns (string memory) {\n        require(msg.sender == _owner);\n\n        string memory _old_title = _title;\n\n        _title = newtitle;\n\n        return _old_title;\n    }\n\n    function createAccount(address client) public virtual returns (bool) {\n        require(_accounts[client] == address(0));\n\n        ERC20Credit _credittoken = new ERC20Credit(address(this), client);\n\n        _accounts[client] = address(_credittoken);\n \n        return true;\n   }\n\n   function updateCreditLimit(address client, uint256 limit) public virtual returns (uint256) {\n        uint _old_limit = _creditlimits[client];\n        uint _old_balance = _balances[client];\n\n        _creditlimits[client] = limit;\n\n        if (limit > _old_limit) {\n            _balances[client] = _old_balance + limit - _old_limit;\n        }\n        else {\n            _balances[client] = _old_balance + _old_limit - limit;\n        }\n \n        return _creditlimits[client];\n   }\n\n   function payWithCredits(address client, uint256 amount) public virtual returns (bool) {\n        uint _old_balance = _balances[client];\n\n        require(_old_balance >= amount, \"CREDIT: transfer amount exceeds balance\");\n\n        if (amount <= _old_balance) {\n            _balances[client] = _old_balance - amount;\n        }\n\n        return true;\n    }\n\n\n   function topupCredits(uint256 amount) public virtual returns (bool) {\n        address _client = msg.sender;\n        uint _current_limit = _creditlimits[_client];\n        uint _current_balance = _balances[_client];\n\n        require( (_current_limit - _current_balance) <= amount, \"TOPUP: amount exceeds ceiling\");\n\n        IERC20 tok = IERC20(_currency_token);\n\n        bool _done = tok.transfer(_owner, amount);\n\n        if (_done) {\n            _balances[_client] = _current_balance + amount;\n        }\n\n        return true;\n    }\n}",
  "sourcePath": "/home/frederic/development/p2pmoney-dev/var/lib/git/repos/javascript/primusmoney_mytokens_webapp/react_apps/my-pwa-apps/my-creditbook/contracts/CreditBook.sol",
  "compiler": {
    "name": "solc",
    "version": "0.8.0+commit.c7dfd78e.Emscripten.clang"
  },
  "schemaVersion": "3.3.4",
  "updatedAt": "2022-08-23T13:01:39.266Z",
  "devdoc": {
    "details": "Manager merchant's credit book",
    "kind": "dev",
    "methods": {},
    "title": "CreditBook",
    "version": 1
  },
  "userdoc": {
    "kind": "user",
    "methods": {},
    "version": 1
  }
}