{
  "contractName": "ERC20Credit",
  "abi": [
    {
      "inputs": [
        {
          "internalType": "address",
          "name": "creditbookaddr",
          "type": "address"
        },
        {
          "internalType": "address",
          "name": "clientaddr",
          "type": "address"
        }
      ],
      "stateMutability": "nonpayable",
      "type": "constructor"
    },
    {
      "anonymous": false,
      "inputs": [
        {
          "indexed": true,
          "internalType": "address",
          "name": "owner",
          "type": "address"
        },
        {
          "indexed": true,
          "internalType": "address",
          "name": "spender",
          "type": "address"
        },
        {
          "indexed": false,
          "internalType": "uint256",
          "name": "value",
          "type": "uint256"
        }
      ],
      "name": "Approval",
      "type": "event"
    },
    {
      "anonymous": false,
      "inputs": [
        {
          "indexed": true,
          "internalType": "address",
          "name": "from",
          "type": "address"
        },
        {
          "indexed": true,
          "internalType": "address",
          "name": "to",
          "type": "address"
        },
        {
          "indexed": false,
          "internalType": "uint256",
          "name": "value",
          "type": "uint256"
        }
      ],
      "name": "Transfer",
      "type": "event"
    },
    {
      "inputs": [],
      "name": "name",
      "outputs": [
        {
          "internalType": "string",
          "name": "",
          "type": "string"
        }
      ],
      "stateMutability": "view",
      "type": "function"
    },
    {
      "inputs": [],
      "name": "symbol",
      "outputs": [
        {
          "internalType": "string",
          "name": "",
          "type": "string"
        }
      ],
      "stateMutability": "view",
      "type": "function"
    },
    {
      "inputs": [],
      "name": "decimals",
      "outputs": [
        {
          "internalType": "uint8",
          "name": "",
          "type": "uint8"
        }
      ],
      "stateMutability": "view",
      "type": "function"
    },
    {
      "inputs": [],
      "name": "totalSupply",
      "outputs": [
        {
          "internalType": "uint256",
          "name": "",
          "type": "uint256"
        }
      ],
      "stateMutability": "view",
      "type": "function"
    },
    {
      "inputs": [
        {
          "internalType": "address",
          "name": "account",
          "type": "address"
        }
      ],
      "name": "balanceOf",
      "outputs": [
        {
          "internalType": "uint256",
          "name": "",
          "type": "uint256"
        }
      ],
      "stateMutability": "view",
      "type": "function"
    },
    {
      "inputs": [
        {
          "internalType": "address",
          "name": "recipient",
          "type": "address"
        },
        {
          "internalType": "uint256",
          "name": "amount",
          "type": "uint256"
        }
      ],
      "name": "transfer",
      "outputs": [
        {
          "internalType": "bool",
          "name": "",
          "type": "bool"
        }
      ],
      "stateMutability": "nonpayable",
      "type": "function"
    },
    {
      "inputs": [
        {
          "internalType": "address",
          "name": "",
          "type": "address"
        },
        {
          "internalType": "address",
          "name": "",
          "type": "address"
        }
      ],
      "name": "allowance",
      "outputs": [
        {
          "internalType": "uint256",
          "name": "",
          "type": "uint256"
        }
      ],
      "stateMutability": "view",
      "type": "function"
    },
    {
      "inputs": [
        {
          "internalType": "address",
          "name": "",
          "type": "address"
        },
        {
          "internalType": "uint256",
          "name": "",
          "type": "uint256"
        }
      ],
      "name": "approve",
      "outputs": [
        {
          "internalType": "bool",
          "name": "",
          "type": "bool"
        }
      ],
      "stateMutability": "nonpayable",
      "type": "function"
    },
    {
      "inputs": [
        {
          "internalType": "address",
          "name": "",
          "type": "address"
        },
        {
          "internalType": "address",
          "name": "",
          "type": "address"
        },
        {
          "internalType": "uint256",
          "name": "",
          "type": "uint256"
        }
      ],
      "name": "transferFrom",
      "outputs": [
        {
          "internalType": "bool",
          "name": "",
          "type": "bool"
        }
      ],
      "stateMutability": "nonpayable",
      "type": "function"
    },
    {
      "inputs": [
        {
          "internalType": "address",
          "name": "",
          "type": "address"
        },
        {
          "internalType": "uint256",
          "name": "",
          "type": "uint256"
        }
      ],
      "name": "increaseAllowance",
      "outputs": [
        {
          "internalType": "bool",
          "name": "",
          "type": "bool"
        }
      ],
      "stateMutability": "nonpayable",
      "type": "function"
    },
    {
      "inputs": [
        {
          "internalType": "address",
          "name": "",
          "type": "address"
        },
        {
          "internalType": "uint256",
          "name": "",
          "type": "uint256"
        }
      ],
      "name": "decreaseAllowance",
      "outputs": [
        {
          "internalType": "bool",
          "name": "",
          "type": "bool"
        }
      ],
      "stateMutability": "nonpayable",
      "type": "function"
    },
    {
      "inputs": [],
      "name": "creditbook",
      "outputs": [
        {
          "internalType": "address",
          "name": "",
          "type": "address"
        }
      ],
      "stateMutability": "view",
      "type": "function"
    }
  ],
  "bytecode": "0x60806040523480156200001157600080fd5b50604051620010bb380380620010bb8339818101604052810190620000379190620001ec565b816000806101000a81548173ffffffffffffffffffffffffffffffffffffffff021916908373ffffffffffffffffffffffffffffffffffffffff16021790555060008060009054906101000a900473ffffffffffffffffffffffffffffffffffffffff1690508073ffffffffffffffffffffffffffffffffffffffff16638da5cb5b6040518163ffffffff1660e01b815260040160206040518083038186803b158015620000e457600080fd5b505afa158015620000f9573d6000803e3d6000fd5b505050506040513d601f19601f820116820180604052508101906200011f9190620001c0565b600160006101000a81548173ffffffffffffffffffffffffffffffffffffffff021916908373ffffffffffffffffffffffffffffffffffffffff16021790555081600260006101000a81548173ffffffffffffffffffffffffffffffffffffffff021916908373ffffffffffffffffffffffffffffffffffffffff1602179055505050506200027b565b600081519050620001ba8162000261565b92915050565b600060208284031215620001d357600080fd5b6000620001e384828501620001a9565b91505092915050565b600080604083850312156200020057600080fd5b60006200021085828601620001a9565b92505060206200022385828601620001a9565b9150509250929050565b60006200023a8262000241565b9050919050565b600073ffffffffffffffffffffffffffffffffffffffff82169050919050565b6200026c816200022d565b81146200027857600080fd5b50565b610e30806200028b6000396000f3fe608060405234801561001057600080fd5b50600436106100b45760003560e01c806370a082311161007157806370a08231146101a357806395d89b41146101d3578063a457c2d7146101f1578063a9059cbb14610221578063dd62ed3e14610251578063f7a7161514610281576100b4565b806306fdde03146100b9578063095ea7b3146100d757806318160ddd1461010757806323b872dd14610125578063313ce567146101555780633950935114610173575b600080fd5b6100c161029f565b6040516100ce9190610c01565b60405180910390f35b6100f160048036038101906100ec9190610a35565b610350565b6040516100fe9190610be6565b60405180910390f35b61010f610358565b60405161011c9190610c23565b60405180910390f35b61013f600480360381019061013a91906109e6565b61042f565b60405161014c9190610be6565b60405180910390f35b61015d610438565b60405161016a9190610c3e565b60405180910390f35b61018d60048036038101906101889190610a35565b6104e2565b60405161019a9190610be6565b60405180910390f35b6101bd60048036038101906101b89190610981565b6104ea565b6040516101ca9190610c23565b60405180910390f35b6101db610623565b6040516101e89190610c01565b60405180910390f35b61020b60048036038101906102069190610a35565b6106d4565b6040516102189190610be6565b60405180910390f35b61023b60048036038101906102369190610a35565b6106dc565b6040516102489190610be6565b60405180910390f35b61026b600480360381019061026691906109aa565b610877565b6040516102789190610c23565b60405180910390f35b61028961087f565b6040516102969190610ba2565b60405180910390f35b606060008060009054906101000a900473ffffffffffffffffffffffffffffffffffffffff1690508073ffffffffffffffffffffffffffffffffffffffff1663867011866040518163ffffffff1660e01b815260040160006040518083038186803b15801561030d57600080fd5b505afa158015610321573d6000803e3d6000fd5b505050506040513d6000823e3d601f19601f8201168201806040525081019061034a9190610a9a565b91505090565b600092915050565b60008060008054906101000a900473ffffffffffffffffffffffffffffffffffffffff1690508073ffffffffffffffffffffffffffffffffffffffff166383d4771b600260009054906101000a900473ffffffffffffffffffffffffffffffffffffffff166040518263ffffffff1660e01b81526004016103d99190610ba2565b60206040518083038186803b1580156103f157600080fd5b505afa158015610405573d6000803e3d6000fd5b505050506040513d601f19601f820116820180604052508101906104299190610adb565b91505090565b60009392505050565b60008060008054906101000a900473ffffffffffffffffffffffffffffffffffffffff1690508073ffffffffffffffffffffffffffffffffffffffff16637624388e6040518163ffffffff1660e01b815260040160206040518083038186803b1580156104a457600080fd5b505afa1580156104b8573d6000803e3d6000fd5b505050506040513d601f19601f820116820180604052508101906104dc9190610b04565b91505090565b600092915050565b60008060008054906101000a900473ffffffffffffffffffffffffffffffffffffffff169050600260009054906101000a900473ffffffffffffffffffffffffffffffffffffffff1673ffffffffffffffffffffffffffffffffffffffff168373ffffffffffffffffffffffffffffffffffffffff161461056f57600091505061061e565b8073ffffffffffffffffffffffffffffffffffffffff166370a08231600260009054906101000a900473ffffffffffffffffffffffffffffffffffffffff166040518263ffffffff1660e01b81526004016105ca9190610ba2565b60206040518083038186803b1580156105e257600080fd5b505afa1580156105f6573d6000803e3d6000fd5b505050506040513d601f19601f8201168201806040525081019061061a9190610adb565b9150505b919050565b606060008060009054906101000a900473ffffffffffffffffffffffffffffffffffffffff1690508073ffffffffffffffffffffffffffffffffffffffff1663968c42096040518163ffffffff1660e01b815260040160006040518083038186803b15801561069157600080fd5b505afa1580156106a5573d6000803e3d6000fd5b505050506040513d6000823e3d601f19601f820116820180604052508101906106ce9190610a9a565b91505090565b600092915050565b6000600260009054906101000a900473ffffffffffffffffffffffffffffffffffffffff1673ffffffffffffffffffffffffffffffffffffffff1661071f6108a8565b73ffffffffffffffffffffffffffffffffffffffff161461073f57600080fd5b600160009054906101000a900473ffffffffffffffffffffffffffffffffffffffff1673ffffffffffffffffffffffffffffffffffffffff168373ffffffffffffffffffffffffffffffffffffffff161461079957600080fd5b60008060009054906101000a900473ffffffffffffffffffffffffffffffffffffffff1690508073ffffffffffffffffffffffffffffffffffffffff166385143ce6600260009054906101000a900473ffffffffffffffffffffffffffffffffffffffff16856040518363ffffffff1660e01b815260040161081c929190610bbd565b602060405180830381600087803b15801561083657600080fd5b505af115801561084a573d6000803e3d6000fd5b505050506040513d601f19601f8201168201806040525081019061086e9190610a71565b91505092915050565b600092915050565b60008060009054906101000a900473ffffffffffffffffffffffffffffffffffffffff16905090565b600033905090565b60006108c36108be84610c8a565b610c59565b9050828152602081018484840111156108db57600080fd5b6108e6848285610d2b565b509392505050565b6000813590506108fd81610d9e565b92915050565b60008151905061091281610db5565b92915050565b600082601f83011261092957600080fd5b81516109398482602086016108b0565b91505092915050565b60008135905061095181610dcc565b92915050565b60008151905061096681610dcc565b92915050565b60008151905061097b81610de3565b92915050565b60006020828403121561099357600080fd5b60006109a1848285016108ee565b91505092915050565b600080604083850312156109bd57600080fd5b60006109cb858286016108ee565b92505060206109dc858286016108ee565b9150509250929050565b6000806000606084860312156109fb57600080fd5b6000610a09868287016108ee565b9350506020610a1a868287016108ee565b9250506040610a2b86828701610942565b9150509250925092565b60008060408385031215610a4857600080fd5b6000610a56858286016108ee565b9250506020610a6785828601610942565b9150509250929050565b600060208284031215610a8357600080fd5b6000610a9184828501610903565b91505092915050565b600060208284031215610aac57600080fd5b600082015167ffffffffffffffff811115610ac657600080fd5b610ad284828501610918565b91505092915050565b600060208284031215610aed57600080fd5b6000610afb84828501610957565b91505092915050565b600060208284031215610b1657600080fd5b6000610b248482850161096c565b91505092915050565b610b3681610cd6565b82525050565b610b4581610ce8565b82525050565b6000610b5682610cba565b610b608185610cc5565b9350610b70818560208601610d2b565b610b7981610d8d565b840191505092915050565b610b8d81610d14565b82525050565b610b9c81610d1e565b82525050565b6000602082019050610bb76000830184610b2d565b92915050565b6000604082019050610bd26000830185610b2d565b610bdf6020830184610b84565b9392505050565b6000602082019050610bfb6000830184610b3c565b92915050565b60006020820190508181036000830152610c1b8184610b4b565b905092915050565b6000602082019050610c386000830184610b84565b92915050565b6000602082019050610c536000830184610b93565b92915050565b6000604051905081810181811067ffffffffffffffff82111715610c8057610c7f610d5e565b5b8060405250919050565b600067ffffffffffffffff821115610ca557610ca4610d5e565b5b601f19601f8301169050602081019050919050565b600081519050919050565b600082825260208201905092915050565b6000610ce182610cf4565b9050919050565b60008115159050919050565b600073ffffffffffffffffffffffffffffffffffffffff82169050919050565b6000819050919050565b600060ff82169050919050565b60005b83811015610d49578082015181840152602081019050610d2e565b83811115610d58576000848401525b50505050565b7f4e487b7100000000000000000000000000000000000000000000000000000000600052604160045260246000fd5b6000601f19601f8301169050919050565b610da781610cd6565b8114610db257600080fd5b50565b610dbe81610ce8565b8114610dc957600080fd5b50565b610dd581610d14565b8114610de057600080fd5b50565b610dec81610d1e565b8114610df757600080fd5b5056fea2646970667358221220163ae93fa58b6722b69cae890b8a7e425273bb6d2d760fe327ad843d176f395b64736f6c63430008000033",
  "immutableReferences": {},
  "source": "// SPDX-License-Identifier: MIT\n\npragma solidity ^0.8.0;\n\nimport \"./erc20/IERC20.sol\";\nimport \"./erc20/extensions/IERC20Metadata.sol\";\nimport \"./utils/Context.sol\";\n\nimport \"./CreditBook.sol\";\n\ncontract ERC20Credit is Context, IERC20, IERC20Metadata {\n    address private _creditbook;\n    address private _owner;\n    address private _client;\n\n    mapping(address => uint256) private _balances;\n\n    mapping(address => mapping(address => uint256)) private _allowances;\n\n    uint256 private _totalSupply;\n\n\n    constructor(address creditbookaddr, address clientaddr) {\n        _creditbook = creditbookaddr;\n        CreditBook _book = CreditBook(_creditbook);\n\n        _owner = _book.owner();\n        _client = clientaddr;\n    }\n\n    // standard ERC20 functions\n    function name() public view virtual override returns (string memory) {\n        CreditBook _book = CreditBook(_creditbook);\n\n        return _book.currencyName();\n    }\n\n    function symbol() public view virtual override returns (string memory) {\n         CreditBook _book = CreditBook(_creditbook);\n\n        return _book.currencySymbol();\n    }\n\n\n    function decimals() public view virtual override returns (uint8) {\n         CreditBook _book = CreditBook(_creditbook);\n\n        return _book.currencyDecimals();\n    }\n\n    function totalSupply() public view virtual override returns (uint256) {\n         CreditBook _book = CreditBook(_creditbook);\n\n        return _book.creditlimitOf(_client);\n    }\n\n    function balanceOf(address account) public view virtual override returns (uint256) {\n        CreditBook _book = CreditBook(_creditbook);\n\n        if (account != _client)\n            return 0;\n\n        return _book.balanceOf(_client);\n    }\n\n    function transfer(address recipient, uint256 amount) public virtual override returns (bool) {\n        require(_msgSender() == _client);\n        require(recipient == _owner);\n\n        CreditBook _book = CreditBook(_creditbook);\n\n        return _book.payWithCredits(_client, amount);\n    }\n\n    // ERC20 functions not applicable\n    function allowance(address /*owner*/, address /*spender*/) public view virtual override returns (uint256) {\n        return 0;\n    }\n\n    function approve(address /*spender*/, uint256 /*amount*/) public virtual override returns (bool) {\n        return false;\n    }\n\n   function transferFrom(\n        address /*sender*/,\n        address /*recipientr*/,\n        uint256 /*amountr*/\n    ) public virtual override returns (bool) {\n        return false;\n    }\n\n    function increaseAllowance(address /*spenderr*/, uint256 /*addedValuer*/) public virtual returns (bool) {\n        return false;\n    }\n\n \n    function decreaseAllowance(address /*spenderr*/, uint256 /*subtractedValuer*/) public virtual returns (bool) {\n        return false;\n    }\n\n    // xtra functions\n    function creditbook() public view virtual returns (address) {\n        return _creditbook;\n    }    \n\n}\n",
  "sourcePath": "/home/frederic/development/p2pmoney-dev/var/lib/git/repos/javascript/primusmoney_mytokens_webapp/react_apps/my-pwa-apps/my-creditbook/contracts/ERC20Credit.sol",
  "compiler": {
    "name": "solc",
    "version": "0.8.0+commit.c7dfd78e.Emscripten.clang"
  },
  "schemaVersion": "3.3.4",
  "updatedAt": "2022-08-23T13:01:39.277Z",
  "devdoc": {
    "kind": "dev",
    "methods": {
      "balanceOf(address)": {
        "details": "Returns the amount of tokens owned by `account`."
      },
      "decimals()": {
        "details": "Returns the decimals places of the token."
      },
      "name()": {
        "details": "Returns the name of the token."
      },
      "symbol()": {
        "details": "Returns the symbol of the token."
      },
      "totalSupply()": {
        "details": "Returns the amount of tokens in existence."
      },
      "transfer(address,uint256)": {
        "details": "Moves `amount` tokens from the caller's account to `recipient`. Returns a boolean value indicating whether the operation succeeded. Emits a {Transfer} event."
      }
    },
    "version": 1
  },
  "userdoc": {
    "kind": "user",
    "methods": {},
    "version": 1
  }
}