{
  "contractName": "ERC20Credit",
  "abi": [
    {
      "inputs": [
        {
          "internalType": "address",
          "name": "creditbookaddr",
          "type": "address"
        },
        {
          "internalType": "address",
          "name": "clientaddr",
          "type": "address"
        }
      ],
      "stateMutability": "nonpayable",
      "type": "constructor"
    },
    {
      "anonymous": false,
      "inputs": [
        {
          "indexed": true,
          "internalType": "address",
          "name": "owner",
          "type": "address"
        },
        {
          "indexed": true,
          "internalType": "address",
          "name": "spender",
          "type": "address"
        },
        {
          "indexed": false,
          "internalType": "uint256",
          "name": "value",
          "type": "uint256"
        }
      ],
      "name": "Approval",
      "type": "event"
    },
    {
      "anonymous": false,
      "inputs": [
        {
          "indexed": true,
          "internalType": "address",
          "name": "from",
          "type": "address"
        },
        {
          "indexed": true,
          "internalType": "address",
          "name": "to",
          "type": "address"
        },
        {
          "indexed": false,
          "internalType": "uint256",
          "name": "value",
          "type": "uint256"
        }
      ],
      "name": "Transfer",
      "type": "event"
    },
    {
      "inputs": [],
      "name": "name",
      "outputs": [
        {
          "internalType": "string",
          "name": "",
          "type": "string"
        }
      ],
      "stateMutability": "view",
      "type": "function"
    },
    {
      "inputs": [],
      "name": "symbol",
      "outputs": [
        {
          "internalType": "string",
          "name": "",
          "type": "string"
        }
      ],
      "stateMutability": "view",
      "type": "function"
    },
    {
      "inputs": [],
      "name": "decimals",
      "outputs": [
        {
          "internalType": "uint8",
          "name": "",
          "type": "uint8"
        }
      ],
      "stateMutability": "view",
      "type": "function"
    },
    {
      "inputs": [],
      "name": "totalSupply",
      "outputs": [
        {
          "internalType": "uint256",
          "name": "",
          "type": "uint256"
        }
      ],
      "stateMutability": "view",
      "type": "function"
    },
    {
      "inputs": [
        {
          "internalType": "address",
          "name": "account",
          "type": "address"
        }
      ],
      "name": "balanceOf",
      "outputs": [
        {
          "internalType": "uint256",
          "name": "",
          "type": "uint256"
        }
      ],
      "stateMutability": "view",
      "type": "function"
    },
    {
      "inputs": [
        {
          "internalType": "address",
          "name": "recipient",
          "type": "address"
        },
        {
          "internalType": "uint256",
          "name": "amount",
          "type": "uint256"
        }
      ],
      "name": "transfer",
      "outputs": [
        {
          "internalType": "bool",
          "name": "",
          "type": "bool"
        }
      ],
      "stateMutability": "nonpayable",
      "type": "function"
    },
    {
      "inputs": [
        {
          "internalType": "address",
          "name": "",
          "type": "address"
        },
        {
          "internalType": "address",
          "name": "",
          "type": "address"
        }
      ],
      "name": "allowance",
      "outputs": [
        {
          "internalType": "uint256",
          "name": "",
          "type": "uint256"
        }
      ],
      "stateMutability": "view",
      "type": "function"
    },
    {
      "inputs": [
        {
          "internalType": "address",
          "name": "",
          "type": "address"
        },
        {
          "internalType": "uint256",
          "name": "",
          "type": "uint256"
        }
      ],
      "name": "approve",
      "outputs": [
        {
          "internalType": "bool",
          "name": "",
          "type": "bool"
        }
      ],
      "stateMutability": "nonpayable",
      "type": "function"
    },
    {
      "inputs": [
        {
          "internalType": "address",
          "name": "",
          "type": "address"
        },
        {
          "internalType": "address",
          "name": "",
          "type": "address"
        },
        {
          "internalType": "uint256",
          "name": "",
          "type": "uint256"
        }
      ],
      "name": "transferFrom",
      "outputs": [
        {
          "internalType": "bool",
          "name": "",
          "type": "bool"
        }
      ],
      "stateMutability": "nonpayable",
      "type": "function"
    },
    {
      "inputs": [
        {
          "internalType": "address",
          "name": "",
          "type": "address"
        },
        {
          "internalType": "uint256",
          "name": "",
          "type": "uint256"
        }
      ],
      "name": "increaseAllowance",
      "outputs": [
        {
          "internalType": "bool",
          "name": "",
          "type": "bool"
        }
      ],
      "stateMutability": "nonpayable",
      "type": "function"
    },
    {
      "inputs": [
        {
          "internalType": "address",
          "name": "",
          "type": "address"
        },
        {
          "internalType": "uint256",
          "name": "",
          "type": "uint256"
        }
      ],
      "name": "decreaseAllowance",
      "outputs": [
        {
          "internalType": "bool",
          "name": "",
          "type": "bool"
        }
      ],
      "stateMutability": "nonpayable",
      "type": "function"
    },
    {
      "inputs": [],
      "name": "creditbook",
      "outputs": [
        {
          "internalType": "address",
          "name": "",
          "type": "address"
        }
      ],
      "stateMutability": "view",
      "type": "function"
    }
  ],
  "bytecode": "0x60806040523480156200001157600080fd5b50604051620012c8380380620012c88339818101604052810190620000379190620001ec565b816000806101000a81548173ffffffffffffffffffffffffffffffffffffffff021916908373ffffffffffffffffffffffffffffffffffffffff16021790555060008060009054906101000a900473ffffffffffffffffffffffffffffffffffffffff1690508073ffffffffffffffffffffffffffffffffffffffff16638da5cb5b6040518163ffffffff1660e01b815260040160206040518083038186803b158015620000e457600080fd5b505afa158015620000f9573d6000803e3d6000fd5b505050506040513d601f19601f820116820180604052508101906200011f9190620001c0565b600160006101000a81548173ffffffffffffffffffffffffffffffffffffffff021916908373ffffffffffffffffffffffffffffffffffffffff16021790555081600260006101000a81548173ffffffffffffffffffffffffffffffffffffffff021916908373ffffffffffffffffffffffffffffffffffffffff1602179055505050506200027b565b600081519050620001ba8162000261565b92915050565b600060208284031215620001d357600080fd5b6000620001e384828501620001a9565b91505092915050565b600080604083850312156200020057600080fd5b60006200021085828601620001a9565b92505060206200022385828601620001a9565b9150509250929050565b60006200023a8262000241565b9050919050565b600073ffffffffffffffffffffffffffffffffffffffff82169050919050565b6200026c816200022d565b81146200027857600080fd5b50565b61103d806200028b6000396000f3fe608060405234801561001057600080fd5b50600436106100b45760003560e01c806370a082311161007157806370a08231146101a357806395d89b41146101d3578063a457c2d7146101f1578063a9059cbb14610221578063dd62ed3e14610251578063f7a7161514610281576100b4565b806306fdde03146100b9578063095ea7b3146100d757806318160ddd1461010757806323b872dd14610125578063313ce567146101555780633950935114610173575b600080fd5b6100c161029f565b6040516100ce9190610dce565b60405180910390f35b6100f160048036038101906100ec9190610b36565b610350565b6040516100fe9190610db3565b60405180910390f35b61010f610358565b60405161011c9190610e30565b60405180910390f35b61013f600480360381019061013a9190610ae7565b61042f565b60405161014c9190610db3565b60405180910390f35b61015d610438565b60405161016a9190610e4b565b60405180910390f35b61018d60048036038101906101889190610b36565b6104e2565b60405161019a9190610db3565b60405180910390f35b6101bd60048036038101906101b89190610a82565b6104ea565b6040516101ca9190610e30565b60405180910390f35b6101db610623565b6040516101e89190610dce565b60405180910390f35b61020b60048036038101906102069190610b36565b6106d4565b6040516102189190610db3565b60405180910390f35b61023b60048036038101906102369190610b36565b6106dc565b6040516102489190610db3565b60405180910390f35b61026b60048036038101906102669190610aab565b610978565b6040516102789190610e30565b60405180910390f35b610289610980565b6040516102969190610d6f565b60405180910390f35b606060008060009054906101000a900473ffffffffffffffffffffffffffffffffffffffff1690508073ffffffffffffffffffffffffffffffffffffffff1663867011866040518163ffffffff1660e01b815260040160006040518083038186803b15801561030d57600080fd5b505afa158015610321573d6000803e3d6000fd5b505050506040513d6000823e3d601f19601f8201168201806040525081019061034a9190610b9b565b91505090565b600092915050565b60008060008054906101000a900473ffffffffffffffffffffffffffffffffffffffff1690508073ffffffffffffffffffffffffffffffffffffffff166383d4771b600260009054906101000a900473ffffffffffffffffffffffffffffffffffffffff166040518263ffffffff1660e01b81526004016103d99190610d6f565b60206040518083038186803b1580156103f157600080fd5b505afa158015610405573d6000803e3d6000fd5b505050506040513d601f19601f820116820180604052508101906104299190610bdc565b91505090565b60009392505050565b60008060008054906101000a900473ffffffffffffffffffffffffffffffffffffffff1690508073ffffffffffffffffffffffffffffffffffffffff16637624388e6040518163ffffffff1660e01b815260040160206040518083038186803b1580156104a457600080fd5b505afa1580156104b8573d6000803e3d6000fd5b505050506040513d601f19601f820116820180604052508101906104dc9190610c05565b91505090565b600092915050565b60008060008054906101000a900473ffffffffffffffffffffffffffffffffffffffff169050600260009054906101000a900473ffffffffffffffffffffffffffffffffffffffff1673ffffffffffffffffffffffffffffffffffffffff168373ffffffffffffffffffffffffffffffffffffffff161461056f57600091505061061e565b8073ffffffffffffffffffffffffffffffffffffffff166370a08231600260009054906101000a900473ffffffffffffffffffffffffffffffffffffffff166040518263ffffffff1660e01b81526004016105ca9190610d6f565b60206040518083038186803b1580156105e257600080fd5b505afa1580156105f6573d6000803e3d6000fd5b505050506040513d601f19601f8201168201806040525081019061061a9190610bdc565b9150505b919050565b606060008060009054906101000a900473ffffffffffffffffffffffffffffffffffffffff1690508073ffffffffffffffffffffffffffffffffffffffff1663968c42096040518163ffffffff1660e01b815260040160006040518083038186803b15801561069157600080fd5b505afa1580156106a5573d6000803e3d6000fd5b505050506040513d6000823e3d601f19601f820116820180604052508101906106ce9190610b9b565b91505090565b600092915050565b6000600260009054906101000a900473ffffffffffffffffffffffffffffffffffffffff1673ffffffffffffffffffffffffffffffffffffffff1661071f6109a9565b73ffffffffffffffffffffffffffffffffffffffff1614610775576040517f08c379a000000000000000000000000000000000000000000000000000000000815260040161076c90610df0565b60405180910390fd5b600160009054906101000a900473ffffffffffffffffffffffffffffffffffffffff1673ffffffffffffffffffffffffffffffffffffffff168373ffffffffffffffffffffffffffffffffffffffff1614610805576040517f08c379a00000000000000000000000000000000000000000000000000000000081526004016107fc90610e10565b60405180910390fd5b60008060009054906101000a900473ffffffffffffffffffffffffffffffffffffffff16905060008173ffffffffffffffffffffffffffffffffffffffff166385143ce6600260009054906101000a900473ffffffffffffffffffffffffffffffffffffffff16866040518363ffffffff1660e01b815260040161088a929190610d8a565b602060405180830381600087803b1580156108a457600080fd5b505af11580156108b8573d6000803e3d6000fd5b505050506040513d601f19601f820116820180604052508101906108dc9190610b72565b9050801561096c578473ffffffffffffffffffffffffffffffffffffffff16600260009054906101000a900473ffffffffffffffffffffffffffffffffffffffff1673ffffffffffffffffffffffffffffffffffffffff167fddf252ad1be2c89b69c2b068fc378daa952ba7f163c4a11628f55a4df523b3ef866040516109639190610e30565b60405180910390a35b60019250505092915050565b600092915050565b60008060009054906101000a900473ffffffffffffffffffffffffffffffffffffffff16905090565b600033905090565b60006109c46109bf84610e97565b610e66565b9050828152602081018484840111156109dc57600080fd5b6109e7848285610f38565b509392505050565b6000813590506109fe81610fab565b92915050565b600081519050610a1381610fc2565b92915050565b600082601f830112610a2a57600080fd5b8151610a3a8482602086016109b1565b91505092915050565b600081359050610a5281610fd9565b92915050565b600081519050610a6781610fd9565b92915050565b600081519050610a7c81610ff0565b92915050565b600060208284031215610a9457600080fd5b6000610aa2848285016109ef565b91505092915050565b60008060408385031215610abe57600080fd5b6000610acc858286016109ef565b9250506020610add858286016109ef565b9150509250929050565b600080600060608486031215610afc57600080fd5b6000610b0a868287016109ef565b9350506020610b1b868287016109ef565b9250506040610b2c86828701610a43565b9150509250925092565b60008060408385031215610b4957600080fd5b6000610b57858286016109ef565b9250506020610b6885828601610a43565b9150509250929050565b600060208284031215610b8457600080fd5b6000610b9284828501610a04565b91505092915050565b600060208284031215610bad57600080fd5b600082015167ffffffffffffffff811115610bc757600080fd5b610bd384828501610a19565b91505092915050565b600060208284031215610bee57600080fd5b6000610bfc84828501610a58565b91505092915050565b600060208284031215610c1757600080fd5b6000610c2584828501610a6d565b91505092915050565b610c3781610ee3565b82525050565b610c4681610ef5565b82525050565b6000610c5782610ec7565b610c618185610ed2565b9350610c71818560208601610f38565b610c7a81610f9a565b840191505092915050565b6000610c92603183610ed2565b91507f5452414e534645523a206f6e6c792062656e6966696369617279206f6620637260008301527f656469742063616e207472616e736665720000000000000000000000000000006020830152604082019050919050565b6000610cf8602783610ed2565b91507f5452414e534645523a2063616e206f6e6c79207472616e7366657220746f206360008301527f72656469746f72000000000000000000000000000000000000000000000000006020830152604082019050919050565b610d5a81610f21565b82525050565b610d6981610f2b565b82525050565b6000602082019050610d846000830184610c2e565b92915050565b6000604082019050610d9f6000830185610c2e565b610dac6020830184610d51565b9392505050565b6000602082019050610dc86000830184610c3d565b92915050565b60006020820190508181036000830152610de88184610c4c565b905092915050565b60006020820190508181036000830152610e0981610c85565b9050919050565b60006020820190508181036000830152610e2981610ceb565b9050919050565b6000602082019050610e456000830184610d51565b92915050565b6000602082019050610e606000830184610d60565b92915050565b6000604051905081810181811067ffffffffffffffff82111715610e8d57610e8c610f6b565b5b8060405250919050565b600067ffffffffffffffff821115610eb257610eb1610f6b565b5b601f19601f8301169050602081019050919050565b600081519050919050565b600082825260208201905092915050565b6000610eee82610f01565b9050919050565b60008115159050919050565b600073ffffffffffffffffffffffffffffffffffffffff82169050919050565b6000819050919050565b600060ff82169050919050565b60005b83811015610f56578082015181840152602081019050610f3b565b83811115610f65576000848401525b50505050565b7f4e487b7100000000000000000000000000000000000000000000000000000000600052604160045260246000fd5b6000601f19601f8301169050919050565b610fb481610ee3565b8114610fbf57600080fd5b50565b610fcb81610ef5565b8114610fd657600080fd5b50565b610fe281610f21565b8114610fed57600080fd5b50565b610ff981610f2b565b811461100457600080fd5b5056fea264697066735822122084b4eaf6779294f6730a5253f57dcada0c26fe5c6906e5e0056e11067601e01064736f6c63430008000033",
  "immutableReferences": {},
  "source": "// SPDX-License-Identifier: MIT\n// PrimusMoney Contracts v0.1\n\npragma solidity >=0.7.0 <0.9.0;\n\nimport \"./erc20/IERC20.sol\";\nimport \"./erc20/extensions/IERC20Metadata.sol\";\nimport \"./utils/Context.sol\";\n\nimport \"./CreditBook.sol\";\n\n\ncontract ERC20Credit is Context, IERC20, IERC20Metadata {\n    address private _creditbook;\n    address private _owner;\n    address private _client;\n\n    mapping(address => uint256) private _balances;\n\n    mapping(address => mapping(address => uint256)) private _allowances;\n\n    uint256 private _totalSupply;\n\n\n    constructor(address creditbookaddr, address clientaddr) {\n        _creditbook = creditbookaddr;\n        CreditBook _book = CreditBook(_creditbook);\n\n        _owner = _book.owner();\n        _client = clientaddr;\n    }\n\n    // standard ERC20 functions\n    function name() public view virtual override returns (string memory) {\n        CreditBook _book = CreditBook(_creditbook);\n\n        return _book.currencyName();\n    }\n\n    function symbol() public view virtual override returns (string memory) {\n         CreditBook _book = CreditBook(_creditbook);\n\n        return _book.currencySymbol();\n    }\n\n\n    function decimals() public view virtual override returns (uint8) {\n         CreditBook _book = CreditBook(_creditbook);\n\n        return _book.currencyDecimals();\n    }\n\n    function totalSupply() public view virtual override returns (uint256) {\n         CreditBook _book = CreditBook(_creditbook);\n\n        return _book.creditlimitOf(_client);\n    }\n\n    function balanceOf(address account) public view virtual override returns (uint256) {\n        CreditBook _book = CreditBook(_creditbook);\n\n        if (account != _client)\n            return 0;\n\n        return _book.balanceOf(_client);\n    }\n\n    function transfer(address recipient, uint256 amount) public virtual override returns (bool) {\n        require(_msgSender() == _client, \"TRANSFER: only benificiary of credit can transfer\");\n        require(recipient == _owner, \"TRANSFER: can only transfer to creditor\");\n\n        CreditBook _book = CreditBook(_creditbook);\n\n        bool _done = _book.payWithCredits(_client, amount);\n\n        if (_done) {\n            emit Transfer(_client, recipient, amount);\n        }\n\n        return true;\n    }\n\n    // ERC20 functions not applicable\n    function allowance(address /*owner*/, address /*spender*/) public view virtual override returns (uint256) {\n        return 0;\n    }\n\n    function approve(address /*spender*/, uint256 /*amount*/) public virtual override returns (bool) {\n        return false;\n    }\n\n   function transferFrom(\n        address /*sender*/,\n        address /*recipientr*/,\n        uint256 /*amountr*/\n    ) public virtual override returns (bool) {\n        return false;\n    }\n\n    function increaseAllowance(address /*spenderr*/, uint256 /*addedValuer*/) public virtual returns (bool) {\n        return false;\n    }\n\n \n    function decreaseAllowance(address /*spenderr*/, uint256 /*subtractedValuer*/) public virtual returns (bool) {\n        return false;\n    }\n\n    // xtra functions\n    function creditbook() public view virtual returns (address) {\n        return _creditbook;\n    }    \n\n}\n",
  "sourcePath": "/home/frederic/development/p2pmoney-dev/var/lib/git/repos/javascript/primusmoney_mytokens_webapp/react_apps/my-pwa-apps/my-creditbook/contracts/ERC20Credit.sol",
  "compiler": {
    "name": "solc",
    "version": "0.8.0+commit.c7dfd78e.Emscripten.clang"
  },
  "schemaVersion": "3.3.4",
  "updatedAt": "2022-09-06T06:33:30.075Z",
  "devdoc": {
    "kind": "dev",
    "methods": {
      "balanceOf(address)": {
        "details": "Returns the amount of tokens owned by `account`."
      },
      "decimals()": {
        "details": "Returns the decimals places of the token."
      },
      "name()": {
        "details": "Returns the name of the token."
      },
      "symbol()": {
        "details": "Returns the symbol of the token."
      },
      "totalSupply()": {
        "details": "Returns the amount of tokens in existence."
      },
      "transfer(address,uint256)": {
        "details": "Moves `amount` tokens from the caller's account to `recipient`. Returns a boolean value indicating whether the operation succeeded. Emits a {Transfer} event."
      }
    },
    "version": 1
  },
  "userdoc": {
    "kind": "user",
    "methods": {},
    "version": 1
  }
}