{
  "contractName": "Linker",
  "abi": [
    {
      "inputs": [
        {
          "internalType": "bytes32",
          "name": "entry",
          "type": "bytes32"
        },
        {
          "internalType": "bytes32",
          "name": "value",
          "type": "bytes32"
        }
      ],
      "name": "store",
      "outputs": [],
      "stateMutability": "payable",
      "type": "function"
    },
    {
      "inputs": [
        {
          "internalType": "bytes32",
          "name": "entry",
          "type": "bytes32"
        }
      ],
      "name": "retrieve",
      "outputs": [
        {
          "internalType": "bytes32",
          "name": "",
          "type": "bytes32"
        }
      ],
      "stateMutability": "view",
      "type": "function"
    }
  ],
  "bytecode": "0x608060405234801561001057600080fd5b506101b9806100206000396000f3fe6080604052600436106100295760003560e01c80634000e4f61461002e578063d1ed74ad1461004a575b600080fd5b610048600480360381019061004391906100fc565b610087565b005b34801561005657600080fd5b50610071600480360381019061006c91906100d3565b6100a2565b60405161007e9190610147565b60405180910390f35b80600080848152602001908152602001600020819055505050565b6000806000838152602001908152602001600020549050919050565b6000813590506100cd8161016c565b92915050565b6000602082840312156100e557600080fd5b60006100f3848285016100be565b91505092915050565b6000806040838503121561010f57600080fd5b600061011d858286016100be565b925050602061012e858286016100be565b9150509250929050565b61014181610162565b82525050565b600060208201905061015c6000830184610138565b92915050565b6000819050919050565b61017581610162565b811461018057600080fd5b5056fea26469706673582212205b47ad9c4c83318c2752a1096007dca9edd1a89be078c7a43cbab1a24e2e527164736f6c63430008000033",
  "immutableReferences": {},
  "source": "// SPDX-License-Identifier: UNLICENSED\npragma solidity ^0.8.0;\n\ncontract Linker {\n\tmapping (bytes32 => bytes32) private _values;\n\t\n\t// bytes32 value\n\tfunction store(bytes32 entry, bytes32 value) public payable {\n\t\t_values[entry] = value;\n\t}\n\n\tfunction retrieve(bytes32 entry) public view returns (bytes32 ) {\n\t\treturn _values[entry];\n\t}\n\n\n}\n",
  "sourcePath": "/home/frederic/development/p2pmoney-dev/var/lib/git/repos/javascript/primusmoney_pocs/react_apps/my-pwa-pocs/contracts/Linker.sol",
  "compiler": {
    "name": "solc",
    "version": "0.8.0+commit.c7dfd78e.Emscripten.clang"
  },
  "schemaVersion": "3.3.4",
  "updatedAt": "2021-11-09T07:34:53.071Z",
  "devdoc": {
    "kind": "dev",
    "methods": {},
    "version": 1
  },
  "userdoc": {
    "kind": "user",
    "methods": {},
    "version": 1
  }
}